{
	"data": {
		"bytecode": {
			"linkReferences": {},
			"object": "608060405234801561001057600080fd5b50612d81806100206000396000f3fe6080604052600436106101c65760003560e01c8063715018a6116100f7578063ad7a672f11610095578063ddc6326211610064578063ddc6326214610469578063f2c6b68614610489578063f2fde38b1461049e578063fbfa77cf146104be576101cd565b8063ad7a672f146103ff578063b6b55f2514610414578063d23e048014610434578063da48069514610449576101cd565b80638da5cb5b116100d15780638da5cb5b146103a057806390d47c9b146103b557806394e1cf96146103ca5780639b877a5c146103df576101cd565b8063715018a6146103615780637cd3431a146103765780638456cb591461038b576101cd565b80633f4ba83a116101645780636817031b1161013e5780636817031b146102f7578063693a090b146103175780636a4f4b051461032c5780636daa50ec1461034c576101cd565b80633f4ba83a146102b85780635c975abb146102cd57806363fe3e3a146102e2576101cd565b80632c9c133b116101a05780632c9c133b146102345780632e1a7d4d146102545780633bbd64bc146102765780633e0dc34e146102a3576101cd565b8063088e9ae9146101d257806314b74d9a146101fd578063242c27fb1461021f576101cd565b366101cd57005b600080fd5b3480156101de57600080fd5b506101e76104d3565b6040516101f491906126fd565b60405180910390f35b34801561020957600080fd5b506102126104e2565b6040516101f49190612c14565b34801561022b57600080fd5b506102126104e8565b34801561024057600080fd5b506101e761024f3660046125a1565b61094a565b34801561026057600080fd5b5061027461026f3660046125a1565b610971565b005b34801561028257600080fd5b50610296610291366004612381565b610bd3565b6040516101f49190612822565b3480156102af57600080fd5b50610212610be8565b3480156102c457600080fd5b50610274610bee565b3480156102d957600080fd5b50610296610c7a565b3480156102ee57600080fd5b506101e7610c83565b34801561030357600080fd5b50610274610312366004612381565b610c92565b34801561032357600080fd5b506101e7610cf3565b34801561033857600080fd5b506102746103473660046123b9565b610d02565b34801561035857600080fd5b506101e7610e08565b34801561036d57600080fd5b50610274610e17565b34801561038257600080fd5b50610296610ea0565b34801561039757600080fd5b50610274610ea9565b3480156103ac57600080fd5b506101e7610f31565b3480156103c157600080fd5b506101e7610f40565b3480156103d657600080fd5b506101e7610f4f565b3480156103eb57600080fd5b506102746103fa3660046125d1565b610f5e565b34801561040b57600080fd5b50610212611235565b34801561042057600080fd5b5061027461042f3660046125a1565b6112dd565b34801561044057600080fd5b506101e761149e565b34801561045557600080fd5b506102126104643660046125a1565b6114b2565b34801561047557600080fd5b506102746104843660046125a1565b61150b565b34801561049557600080fd5b506101e7611588565b3480156104aa57600080fd5b506102746104b9366004612381565b611597565b3480156104ca57600080fd5b506101e7611658565b60ce546001600160a01b031681565b60d15481565b60006104f2612228565b60d05460ce54604051634061dc6160e11b81526001600160a01b03928316926380c3b8c292610526929116906004016126fd565b6101406040518083038186803b15801561053f57600080fd5b505afa158015610553573d6000803e3d6000fd5b505050506040513d601f19601f8201168201806040525081019061057791906124ef565b61010081015160c082015161012083015192935090914211156108a05760006105ae8461012001514261166790919063ffffffff16565b60d05460ce54604051635cf3b15f60e01b81529293506000926001600160a01b0392831692635cf3b15f926105e8929116906004016126fd565b60206040518083038186803b15801561060057600080fd5b505afa158015610614573d6000803e3d6000fd5b505050506040513d601f19601f8201168201806040525081019061063891906125b9565b9050600060d060009054906101000a90046001600160a01b03166001600160a01b03166379502c556040518163ffffffff1660e01b815260040160206040518083038186803b15801561068a57600080fd5b505afa15801561069e573d6000803e3d6000fd5b505050506040513d601f19601f820116820180604052508101906106c2919061239d565b6001600160a01b031663c6dfa13f85846040518363ffffffff1660e01b81526004016106ef929190612c34565b60206040518083038186803b15801561070757600080fd5b505afa15801561071b573d6000803e3d6000fd5b505050506040513d601f19601f8201168201806040525081019061073f91906125b9565b90506000610769670de0b6b3a76400006107638761075d868961168f565b9061168f565b906116d0565b9050600061087361271061076360d060009054906101000a90046001600160a01b03166001600160a01b03166379502c556040518163ffffffff1660e01b815260040160206040518083038186803b1580156107c457600080fd5b505afa1580156107d8573d6000803e3d6000fd5b505050506040513d601f19601f820116820180604052508101906107fc919061239d565b6001600160a01b031663249c11bd6040518163ffffffff1660e01b815260040160206040518083038186803b15801561083457600080fd5b505afa158015610848573d6000803e3d6000fd5b505050506040513d601f19601f8201168201806040525081019061086c91906125b9565b859061168f565b6101008901519091506108869082611702565b60c08901519097506108989083611702565b955050505050505b60c95460d0546040516370a0823160e01b815261094292859261093c92869261010090046001600160a01b03908116926370a08231926108e692909116906004016126fd565b60206040518083038186803b1580156108fe57600080fd5b505afa158015610912573d6000803e3d6000fd5b505050506040513d601f19601f8201168201806040525081019061093691906125b9565b90611702565b90611667565b935050505090565b60d2818154811061095757fe5b6000918252602090912001546001600160a01b0316905081565b60d4546001600160a01b031633146109a45760405162461bcd60e51b815260040161099b90612beb565b60405180910390fd5b600260975414156109c75760405162461bcd60e51b815260040161099b90612b5e565b600260975560006109d7826114b2565b60cc5460d354604051635ae2fb3960e11b81529293506001600160a01b039091169163b5c5f67291610a10913091908690600401612711565b600060405180830381600087803b158015610a2a57600080fd5b505af1158015610a3e573d6000803e3d6000fd5b505060d05460ce5460cf546040516370a0823160e01b81526001600160a01b03938416955063f3fef3a394509183169216906370a0823190610a849030906004016126fd565b60206040518083038186803b158015610a9c57600080fd5b505afa158015610ab0573d6000803e3d6000fd5b505050506040513d601f19601f82011682018060405250810190610ad491906125b9565b6040518363ffffffff1660e01b8152600401610af1929190612770565b600060405180830381600087803b158015610b0b57600080fd5b505af1158015610b1f573d6000803e3d6000fd5b505060c9546040516370a0823160e01b8152600093506101009091046001600160a01b031691506370a0823190610b5a9030906004016126fd565b60206040518083038186803b158015610b7257600080fd5b505afa158015610b86573d6000803e3d6000fd5b505050506040513d601f19601f82011682018060405250810190610baa91906125b9565b60c954909150610bc99061010090046001600160a01b03163383611727565b5050600160975550565b60d56020526000908152604090205460ff1681565b60d35481565b610bf6611782565b6001600160a01b0316610c07610f31565b6001600160a01b031614610c2d5760405162461bcd60e51b815260040161099b90612a78565b610c35611786565b60ca5460cd54610c54916001600160a01b0391821691166000196117f4565b60ca5460c954610c78916001600160a01b03610100909204821691166000196117f4565b565b60655460ff1690565b60cb546001600160a01b031681565b610c9a611782565b6001600160a01b0316610cab610f31565b6001600160a01b031614610cd15760405162461bcd60e51b815260040161099b90612a78565b60d480546001600160a01b0319166001600160a01b0392909216919091179055565b60ca546001600160a01b031681565b610d0a611782565b6001600160a01b0316610d1b610f31565b6001600160a01b031614610d415760405162461bcd60e51b815260040161099b90612a78565b8260005b81811015610dc357838382818110610d5957fe5b9050602002016020810190610d6e91906124b7565b60d56000888885818110610d7e57fe5b9050602002016020810190610d939190612381565b6001600160a01b031681526020810191909152604001600020805460ff1916911515919091179055600101610d45565b507fd1721b10ac5fe95d2627d512aa0f92c34ada0347c874adf414cf51af5760ff5685858585604051610df99493929190612789565b60405180910390a15050505050565b60d0546001600160a01b031681565b610e1f611782565b6001600160a01b0316610e30610f31565b6001600160a01b031614610e565760405162461bcd60e51b815260040161099b90612a78565b6033546040516000916001600160a01b0316907f8be0079c531659141344cd1fd0a4f28419497f9722a3daafe3b4186f6b6457e0908390a3603380546001600160a01b0319169055565b60c95460ff1681565b610eb1611782565b6001600160a01b0316610ec2610f31565b6001600160a01b031614610ee85760405162461bcd60e51b815260040161099b90612a78565b610ef06118b7565b60ca5460cd54610f0e916001600160a01b03918216911660006117f4565b60ca5460c954610c78916001600160a01b036101009092048216911660006117f4565b6033546001600160a01b031690565b60cd546001600160a01b031681565b60cc546001600160a01b031681565b600054610100900460ff1680610f775750610f77611912565b80610f85575060005460ff16155b610fa15760405162461bcd60e51b815260040161099b906129e9565b600054610100900460ff16158015610fcc576000805460ff1961ff0019909116610100171660011790555b610fd4611923565b610fdc6119b6565b60d38b905560cc80546001600160a01b03199081166001600160a01b038d81169190911790925560cd805482168c841617905560d0805482168b8416179055600060d15560c9805460ff191685151517610100600160a81b0319166101008a85169081029190911790915560cb805490921688841617918290559116141561109f5760c9805460ff19166001179055604080518082019091526001600160a01b03808b16825260cb541660208201526110999060d2906002612293565b506110d9565b604080516060810182526001600160a01b03808c16825260cb54811660208301528816918101919091526110d79060d2906003612293565b505b60ca80546001600160a01b038087166001600160a01b03199283161790925560d4805486841690831617905560ce8054928a169290911691909117905561111e612228565b60d05460ce54604051634061dc6160e11b81526001600160a01b03928316926380c3b8c292611152929116906004016126fd565b6101406040518083038186803b15801561116b57600080fd5b505afa15801561117f573d6000803e3d6000fd5b505050506040513d601f19601f820116820180604052508101906111a391906124ef565b602081015160cf80546001600160a01b0319166001600160a01b0392831617905560c9549192506111dd916101009004168a6000196117f4565b60cf546111f6906001600160a01b03168c6000196117f4565b60ca5460cd54611215916001600160a01b0391821691166000196117f4565b508015611228576000805461ff00191690555b5050505050505050505050565b600080611240611a34565b90506112d760cf60009054906101000a90046001600160a01b03166001600160a01b03166318160ddd6040518163ffffffff1660e01b815260040160206040518083038186803b15801561129357600080fd5b505afa1580156112a7573d6000803e3d6000fd5b505050506040513d601f19601f820116820180604052508101906112cb91906125b9565b6107638361075d6104e8565b91505090565b60d4546001600160a01b031633146113075760405162461bcd60e51b815260040161099b90612beb565b6002609754141561132a5760405162461bcd60e51b815260040161099b90612b5e565b600260975560c95461134c9061010090046001600160a01b0316333084611ac6565b60d05460ce546040516311f9fbc960e21b81526001600160a01b03928316926347e7ef2492611382929116908590600401612770565b600060405180830381600087803b15801561139c57600080fd5b505af11580156113b0573d6000803e3d6000fd5b505060cc5460d35460cf546040516370a0823160e01b81526001600160a01b039384169550630efe6a8b94503093909116906370a08231906113f69085906004016126fd565b60206040518083038186803b15801561140e57600080fd5b505afa158015611422573d6000803e3d6000fd5b505050506040513d601f19601f8201168201806040525081019061144691906125b9565b6040518463ffffffff1660e01b815260040161146493929190612711565b600060405180830381600087803b15801561147e57600080fd5b505af1158015611492573d6000803e3d6000fd5b50506001609755505050565b60c95461010090046001600160a01b031681565b60006115056114bf6104e8565b60cf54604080516318160ddd60e01b81529051610763926001600160a01b0316916318160ddd916004808301926020929190829003018186803b15801561083457600080fd5b92915050565b60d4546001600160a01b0316331480611533575033600090815260d5602052604090205460ff165b61154f5760405162461bcd60e51b815260040161099b90612ae4565b600260975414156115725760405162461bcd60e51b815260040161099b90612b5e565b600260975561158081611aed565b506001609755565b60cf546001600160a01b031681565b61159f611782565b6001600160a01b03166115b0610f31565b6001600160a01b0316146115d65760405162461bcd60e51b815260040161099b90612a78565b6001600160a01b0381166115fc5760405162461bcd60e51b815260040161099b9061288e565b6033546040516001600160a01b038084169216907f8be0079c531659141344cd1fd0a4f28419497f9722a3daafe3b4186f6b6457e090600090a3603380546001600160a01b0319166001600160a01b0392909216919091179055565b60d4546001600160a01b031681565b6000828211156116895760405162461bcd60e51b815260040161099b9061290b565b50900390565b60008261169e57506000611505565b828202828482816116ab57fe5b04146116c95760405162461bcd60e51b815260040161099b90612a37565b9392505050565b60008082116116f15760405162461bcd60e51b815260040161099b90612988565b8183816116fa57fe5b049392505050565b6000828201838110156116c95760405162461bcd60e51b815260040161099b906128d4565b61177d8363a9059cbb60e01b8484604051602401611746929190612770565b60408051601f198184030181529190526020810180516001600160e01b03166001600160e01b031990931692909217909152611e9b565b505050565b3390565b61178e610c7a565b6117aa5760405162461bcd60e51b815260040161099b90612860565b6065805460ff191690557f5db9ee0a495bf2e6ff9c91a7834c1ba4fdd244a5e8aa4e537bd38aeae4b073aa6117dd611782565b6040516117ea91906126fd565b60405180910390a1565b80158061187c5750604051636eb1769f60e11b81526001600160a01b0384169063dd62ed3e9061182a9030908690600401612732565b60206040518083038186803b15801561184257600080fd5b505afa158015611856573d6000803e3d6000fd5b505050506040513d601f19601f8201168201806040525081019061187a91906125b9565b155b6118985760405162461bcd60e51b815260040161099b90612b95565b61177d8363095ea7b360e01b8484604051602401611746929190612770565b6118bf610c7a565b156118dc5760405162461bcd60e51b815260040161099b906129bf565b6065805460ff191660011790557f62e78cea01bee320cd4e420270b5ea74000d11b0c9f74754ebdbfc544b05a2586117dd611782565b600061191d30611f2a565b15905090565b600054610100900460ff168061193c575061193c611912565b8061194a575060005460ff16155b6119665760405162461bcd60e51b815260040161099b906129e9565b600054610100900460ff16158015611991576000805460ff1961ff0019909116610100171660011790555b611999611f30565b6119a1611fb1565b80156119b3576000805461ff00191690555b50565b600054610100900460ff16806119cf57506119cf611912565b806119dd575060005460ff16155b6119f95760405162461bcd60e51b815260040161099b906129e9565b600054610100900460ff16158015611a24576000805460ff1961ff0019909116610100171660011790555b611a2c611f30565b6119a161208b565b60cc5460d3546040516393f1a40b60e01b815260009283926001600160a01b03909116916393f1a40b91611a6c913090600401612c1d565b60806040518083038186803b158015611a8457600080fd5b505afa158015611a98573d6000803e3d6000fd5b505050506040513d601f19601f82011682018060405250810190611abc9190612697565b5091935050505090565b611ae7846323b872dd60e01b8585856040516024016117469392919061274c565b50505050565b4360d1541415611afc576119b3565b611b04611a34565b611b0d576119b3565b60cc5460d354604051636ee3193160e11b81526001600160a01b039092169163ddc6326291611b3e91600401612c14565b600060405180830381600087803b158015611b5857600080fd5b505af1158015611b6c573d6000803e3d6000fd5b505060cd546040516370a0823160e01b8152600093506001600160a01b0390911691506370a0823190611ba39030906004016126fd565b60206040518083038186803b158015611bbb57600080fd5b505afa158015611bcf573d6000803e3d6000fd5b505050506040513d601f19601f82011682018060405250810190611bf391906125b9565b905080611c0057506119b3565b60c95460cd546001600160a01b039081166101009092041614611ccc5760ca546001600160a01b03166338ed173982611c45670de0b6b3a7640000610763838861168f565b60d230611c5442610258611702565b6040518663ffffffff1660e01b8152600401611c74959493929190612c42565b600060405180830381600087803b158015611c8e57600080fd5b505af1158015611ca2573d6000803e3d6000fd5b505050506040513d6000823e601f3d908101601f19168201604052611cca9190810190612422565b505b60d05460ce5460c9546040516370a0823160e01b81526001600160a01b03938416936347e7ef2493811692610100900416906370a0823190611d129030906004016126fd565b60206040518083038186803b158015611d2a57600080fd5b505afa158015611d3e573d6000803e3d6000fd5b505050506040513d601f19601f82011682018060405250810190611d6291906125b9565b6040518363ffffffff1660e01b8152600401611d7f929190612770565b600060405180830381600087803b158015611d9957600080fd5b505af1158015611dad573d6000803e3d6000fd5b505060cc5460d35460cf546040516370a0823160e01b81526001600160a01b039384169550630efe6a8b94503093909116906370a0823190611df39085906004016126fd565b60206040518083038186803b158015611e0b57600080fd5b505afa158015611e1f573d6000803e3d6000fd5b505050506040513d601f19601f82011682018060405250810190611e4391906125b9565b6040518463ffffffff1660e01b8152600401611e6193929190612711565b600060405180830381600087803b158015611e7b57600080fd5b505af1158015611e8f573d6000803e3d6000fd5b50504360d15550505050565b6060611ef0826040518060400160405280602081526020017f5361666545524332303a206c6f772d6c6576656c2063616c6c206661696c6564815250856001600160a01b03166121179092919063ffffffff16565b80519091501561177d5780806020019051810190611f0e91906124d3565b61177d5760405162461bcd60e51b815260040161099b90612b14565b3b151590565b600054610100900460ff1680611f495750611f49611912565b80611f57575060005460ff16155b611f735760405162461bcd60e51b815260040161099b906129e9565b600054610100900460ff161580156119a1576000805460ff1961ff00199091166101001716600117905580156119b3576000805461ff001916905550565b600054610100900460ff1680611fca5750611fca611912565b80611fd8575060005460ff16155b611ff45760405162461bcd60e51b815260040161099b906129e9565b600054610100900460ff1615801561201f576000805460ff1961ff0019909116610100171660011790555b6000612029611782565b603380546001600160a01b0319166001600160a01b038316908117909155604051919250906000907f8be0079c531659141344cd1fd0a4f28419497f9722a3daafe3b4186f6b6457e0908290a35080156119b3576000805461ff001916905550565b600054610100900460ff16806120a457506120a4611912565b806120b2575060005460ff16155b6120ce5760405162461bcd60e51b815260040161099b906129e9565b600054610100900460ff161580156120f9576000805460ff1961ff0019909116610100171660011790555b6065805460ff1916905580156119b3576000805461ff001916905550565b6060612126848460008561212e565b949350505050565b6060824710156121505760405162461bcd60e51b815260040161099b90612942565b61215985611f2a565b6121755760405162461bcd60e51b815260040161099b90612aad565b60006060866001600160a01b0316858760405161219291906126e1565b60006040518083038185875af1925050503d80600081146121cf576040519150601f19603f3d011682016040523d82523d6000602084013e6121d4565b606091505b50915091506121e48282866121ef565b979650505050505050565b606083156121fe5750816116c9565b82511561220e5782518084602001fd5b8160405162461bcd60e51b815260040161099b919061282d565b60405180610140016040528060006001600160a01b0316815260200160006001600160a01b0316815260200160001515815260200160001515815260200160001515815260200160008152602001600081526020016000815260200160008152602001600081525090565b8280548282559060005260206000209081019282156122e8579160200282015b828111156122e857825182546001600160a01b0319166001600160a01b039091161782556020909201916001909101906122b3565b506122f49291506122f8565b5090565b5b808211156122f45780546001600160a01b03191681556001016122f9565b805161150581612d28565b60008083601f840112612333578182fd5b50813567ffffffffffffffff81111561234a578182fd5b602083019150836020808302850101111561236457600080fd5b9250929050565b803561150581612d3d565b805161150581612d3d565b600060208284031215612392578081fd5b81356116c981612d28565b6000602082840312156123ae578081fd5b81516116c981612d28565b600080600080604085870312156123ce578283fd5b843567ffffffffffffffff808211156123e5578485fd5b6123f188838901612322565b90965094506020870135915080821115612409578384fd5b5061241687828801612322565b95989497509550505050565b60006020808385031215612434578182fd5b825167ffffffffffffffff81111561244a578283fd5b8301601f8101851361245a578283fd5b805161246d61246882612cdc565b612cb5565b8181528381019083850185840285018601891015612489578687fd5b8694505b838510156124ab57805183526001949094019391850191850161248d565b50979650505050505050565b6000602082840312156124c8578081fd5b81356116c981612d3d565b6000602082840312156124e4578081fd5b81516116c981612d3d565b6000610140808385031215612502578182fd5b61250b81612cb5565b90506125178484612317565b81526125268460208501612317565b60208201526125388460408501612376565b604082015261254a8460608501612376565b606082015261255c8460808501612376565b608082015260a083015160a082015260c083015160c082015260e083015160e08201526101008084015181830152506101208084015181830152508091505092915050565b6000602082840312156125b2578081fd5b5035919050565b6000602082840312156125ca578081fd5b5051919050565b6000806000806000806000806000806101408b8d0312156125f0578586fd5b8a35995060208b013561260281612d28565b985060408b013561261281612d28565b975060608b013561262281612d28565b965060808b013561263281612d28565b955060a08b013561264281612d28565b945060c08b013561265281612d28565b935060e08b013561266281612d28565b92506101008b013561267381612d28565b91506101208b013561268481612d3d565b809150509295989b9194979a5092959850565b600080600080608085870312156126ac578384fd5b84519350602085015192506040850151915060608501516126cc81612d28565b939692955090935050565b1515815260200190565b600082516126f3818460208701612cfc565b9190910192915050565b6001600160a01b0391909116815260200190565b6001600160a01b039390931683526020830191909152604082015260600190565b6001600160a01b0392831681529116602082015260400190565b6001600160a01b039384168152919092166020820152604081019190915260600190565b6001600160a01b03929092168252602082015260400190565b6040808252810184905260008560608301825b878110156127cc57602083356127b181612d28565b6001600160a01b03168352928301929091019060010161279c565b506020915083810382850152806127e38683612c14565b9050869150835b868110156128155783830161280883612803838761236b565b6126d7565b90935091506001016127ea565b5098975050505050505050565b901515815260200190565b600060208252825180602084015261284c816040850160208701612cfc565b601f01601f19169190910160400192915050565b60208082526014908201527314185d5cd8589b194e881b9bdd081c185d5cd95960621b604082015260600190565b60208082526026908201527f4f776e61626c653a206e6577206f776e657220697320746865207a65726f206160408201526564647265737360d01b606082015260800190565b6020808252601b908201527f536166654d6174683a206164646974696f6e206f766572666c6f770000000000604082015260600190565b6020808252601e908201527f536166654d6174683a207375627472616374696f6e206f766572666c6f770000604082015260600190565b60208082526026908201527f416464726573733a20696e73756666696369656e742062616c616e636520666f6040820152651c8818d85b1b60d21b606082015260800190565b6020808252601a908201527f536166654d6174683a206469766973696f6e206279207a65726f000000000000604082015260600190565b60208082526010908201526f14185d5cd8589b194e881c185d5cd95960821b604082015260600190565b6020808252602e908201527f496e697469616c697a61626c653a20636f6e747261637420697320616c72656160408201526d191e481a5b9a5d1a585b1a5e995960921b606082015260800190565b60208082526021908201527f536166654d6174683a206d756c7469706c69636174696f6e206f766572666c6f6040820152607760f81b606082015260800190565b6020808252818101527f4f776e61626c653a2063616c6c6572206973206e6f7420746865206f776e6572604082015260600190565b6020808252601d908201527f416464726573733a2063616c6c20746f206e6f6e2d636f6e7472616374000000604082015260600190565b60208082526016908201527526bab9ba10333937b6903b30bab63a17b5b2b2b832b960511b604082015260600190565b6020808252602a908201527f5361666545524332303a204552433230206f7065726174696f6e20646964206e6040820152691bdd081cdd58d8d9595960b21b606082015260800190565b6020808252601f908201527f5265656e7472616e637947756172643a207265656e7472616e742063616c6c00604082015260600190565b60208082526036908201527f5361666545524332303a20617070726f76652066726f6d206e6f6e2d7a65726f60408201527520746f206e6f6e2d7a65726f20616c6c6f77616e636560501b606082015260800190565b6020808252600f908201526e135d5cdd08199c9bdb481d985d5b1d608a1b604082015260600190565b90815260200190565b9182526001600160a01b0316602082015260400190565b918252602082015260400190565b600060a082018783526020878185015260a0604085015281875480845260c0860191508885528285209350845b81811015612c945784546001600160a01b031683526001948501949284019201612c6f565b50506001600160a01b03969096166060850152505050608001529392505050565b60405181810167ffffffffffffffff81118282101715612cd457600080fd5b604052919050565b600067ffffffffffffffff821115612cf2578081fd5b5060209081020190565b60005b83811015612d17578181015183820152602001612cff565b83811115611ae75750506000910152565b6001600160a01b03811681146119b357600080fd5b80151581146119b357600080fdfea26469706673582212206d1bb799001b40a11e72fa00b997f6476ac0191039f13cfe83b9264246f98ad364736f6c634300060c0033",
			"opcodes": "PUSH1 0x80 PUSH1 0x40 MSTORE CALLVALUE DUP1 ISZERO PUSH2 0x10 JUMPI PUSH1 0x0 DUP1 REVERT JUMPDEST POP PUSH2 0x2D81 DUP1 PUSH2 0x20 PUSH1 0x0 CODECOPY PUSH1 0x0 RETURN INVALID PUSH1 0x80 PUSH1 0x40 MSTORE PUSH1 0x4 CALLDATASIZE LT PUSH2 0x1C6 JUMPI PUSH1 0x0 CALLDATALOAD PUSH1 0xE0 SHR DUP1 PUSH4 0x715018A6 GT PUSH2 0xF7 JUMPI DUP1 PUSH4 0xAD7A672F GT PUSH2 0x95 JUMPI DUP1 PUSH4 0xDDC63262 GT PUSH2 0x64 JUMPI DUP1 PUSH4 0xDDC63262 EQ PUSH2 0x469 JUMPI DUP1 PUSH4 0xF2C6B686 EQ PUSH2 0x489 JUMPI DUP1 PUSH4 0xF2FDE38B EQ PUSH2 0x49E JUMPI DUP1 PUSH4 0xFBFA77CF EQ PUSH2 0x4BE JUMPI PUSH2 0x1CD JUMP JUMPDEST DUP1 PUSH4 0xAD7A672F EQ PUSH2 0x3FF JUMPI DUP1 PUSH4 0xB6B55F25 EQ PUSH2 0x414 JUMPI DUP1 PUSH4 0xD23E0480 EQ PUSH2 0x434 JUMPI DUP1 PUSH4 0xDA480695 EQ PUSH2 0x449 JUMPI PUSH2 0x1CD JUMP JUMPDEST DUP1 PUSH4 0x8DA5CB5B GT PUSH2 0xD1 JUMPI DUP1 PUSH4 0x8DA5CB5B EQ PUSH2 0x3A0 JUMPI DUP1 PUSH4 0x90D47C9B EQ PUSH2 0x3B5 JUMPI DUP1 PUSH4 0x94E1CF96 EQ PUSH2 0x3CA JUMPI DUP1 PUSH4 0x9B877A5C EQ PUSH2 0x3DF JUMPI PUSH2 0x1CD JUMP JUMPDEST DUP1 PUSH4 0x715018A6 EQ PUSH2 0x361 JUMPI DUP1 PUSH4 0x7CD3431A EQ PUSH2 0x376 JUMPI DUP1 PUSH4 0x8456CB59 EQ PUSH2 0x38B JUMPI PUSH2 0x1CD JUMP JUMPDEST DUP1 PUSH4 0x3F4BA83A GT PUSH2 0x164 JUMPI DUP1 PUSH4 0x6817031B GT PUSH2 0x13E JUMPI DUP1 PUSH4 0x6817031B EQ PUSH2 0x2F7 JUMPI DUP1 PUSH4 0x693A090B EQ PUSH2 0x317 JUMPI DUP1 PUSH4 0x6A4F4B05 EQ PUSH2 0x32C JUMPI DUP1 PUSH4 0x6DAA50EC EQ PUSH2 0x34C JUMPI PUSH2 0x1CD JUMP JUMPDEST DUP1 PUSH4 0x3F4BA83A EQ PUSH2 0x2B8 JUMPI DUP1 PUSH4 0x5C975ABB EQ PUSH2 0x2CD JUMPI DUP1 PUSH4 0x63FE3E3A EQ PUSH2 0x2E2 JUMPI PUSH2 0x1CD JUMP JUMPDEST DUP1 PUSH4 0x2C9C133B GT PUSH2 0x1A0 JUMPI DUP1 PUSH4 0x2C9C133B EQ PUSH2 0x234 JUMPI DUP1 PUSH4 0x2E1A7D4D EQ PUSH2 0x254 JUMPI DUP1 PUSH4 0x3BBD64BC EQ PUSH2 0x276 JUMPI DUP1 PUSH4 0x3E0DC34E EQ PUSH2 0x2A3 JUMPI PUSH2 0x1CD JUMP JUMPDEST DUP1 PUSH4 0x88E9AE9 EQ PUSH2 0x1D2 JUMPI DUP1 PUSH4 0x14B74D9A EQ PUSH2 0x1FD JUMPI DUP1 PUSH4 0x242C27FB EQ PUSH2 0x21F JUMPI PUSH2 0x1CD JUMP JUMPDEST CALLDATASIZE PUSH2 0x1CD JUMPI STOP JUMPDEST PUSH1 0x0 DUP1 REVERT JUMPDEST CALLVALUE DUP1 ISZERO PUSH2 0x1DE JUMPI PUSH1 0x0 DUP1 REVERT JUMPDEST POP PUSH2 0x1E7 PUSH2 0x4D3 JUMP JUMPDEST PUSH1 0x40 MLOAD PUSH2 0x1F4 SWAP2 SWAP1 PUSH2 0x26FD JUMP JUMPDEST PUSH1 0x40 MLOAD DUP1 SWAP2 SUB SWAP1 RETURN JUMPDEST CALLVALUE DUP1 ISZERO PUSH2 0x209 JUMPI PUSH1 0x0 DUP1 REVERT JUMPDEST POP PUSH2 0x212 PUSH2 0x4E2 JUMP JUMPDEST PUSH1 0x40 MLOAD PUSH2 0x1F4 SWAP2 SWAP1 PUSH2 0x2C14 JUMP JUMPDEST CALLVALUE DUP1 ISZERO PUSH2 0x22B JUMPI PUSH1 0x0 DUP1 REVERT JUMPDEST POP PUSH2 0x212 PUSH2 0x4E8 JUMP JUMPDEST CALLVALUE DUP1 ISZERO PUSH2 0x240 JUMPI PUSH1 0x0 DUP1 REVERT JUMPDEST POP PUSH2 0x1E7 PUSH2 0x24F CALLDATASIZE PUSH1 0x4 PUSH2 0x25A1 JUMP JUMPDEST PUSH2 0x94A JUMP JUMPDEST CALLVALUE DUP1 ISZERO PUSH2 0x260 JUMPI PUSH1 0x0 DUP1 REVERT JUMPDEST POP PUSH2 0x274 PUSH2 0x26F CALLDATASIZE PUSH1 0x4 PUSH2 0x25A1 JUMP JUMPDEST PUSH2 0x971 JUMP JUMPDEST STOP JUMPDEST CALLVALUE DUP1 ISZERO PUSH2 0x282 JUMPI PUSH1 0x0 DUP1 REVERT JUMPDEST POP PUSH2 0x296 PUSH2 0x291 CALLDATASIZE PUSH1 0x4 PUSH2 0x2381 JUMP JUMPDEST PUSH2 0xBD3 JUMP JUMPDEST PUSH1 0x40 MLOAD PUSH2 0x1F4 SWAP2 SWAP1 PUSH2 0x2822 JUMP JUMPDEST CALLVALUE DUP1 ISZERO PUSH2 0x2AF JUMPI PUSH1 0x0 DUP1 REVERT JUMPDEST POP PUSH2 0x212 PUSH2 0xBE8 JUMP JUMPDEST CALLVALUE DUP1 ISZERO PUSH2 0x2C4 JUMPI PUSH1 0x0 DUP1 REVERT JUMPDEST POP PUSH2 0x274 PUSH2 0xBEE JUMP JUMPDEST CALLVALUE DUP1 ISZERO PUSH2 0x2D9 JUMPI PUSH1 0x0 DUP1 REVERT JUMPDEST POP PUSH2 0x296 PUSH2 0xC7A JUMP JUMPDEST CALLVALUE DUP1 ISZERO PUSH2 0x2EE JUMPI PUSH1 0x0 DUP1 REVERT JUMPDEST POP PUSH2 0x1E7 PUSH2 0xC83 JUMP JUMPDEST CALLVALUE DUP1 ISZERO PUSH2 0x303 JUMPI PUSH1 0x0 DUP1 REVERT JUMPDEST POP PUSH2 0x274 PUSH2 0x312 CALLDATASIZE PUSH1 0x4 PUSH2 0x2381 JUMP JUMPDEST PUSH2 0xC92 JUMP JUMPDEST CALLVALUE DUP1 ISZERO PUSH2 0x323 JUMPI PUSH1 0x0 DUP1 REVERT JUMPDEST POP PUSH2 0x1E7 PUSH2 0xCF3 JUMP JUMPDEST CALLVALUE DUP1 ISZERO PUSH2 0x338 JUMPI PUSH1 0x0 DUP1 REVERT JUMPDEST POP PUSH2 0x274 PUSH2 0x347 CALLDATASIZE PUSH1 0x4 PUSH2 0x23B9 JUMP JUMPDEST PUSH2 0xD02 JUMP JUMPDEST CALLVALUE DUP1 ISZERO PUSH2 0x358 JUMPI PUSH1 0x0 DUP1 REVERT JUMPDEST POP PUSH2 0x1E7 PUSH2 0xE08 JUMP JUMPDEST CALLVALUE DUP1 ISZERO PUSH2 0x36D JUMPI PUSH1 0x0 DUP1 REVERT JUMPDEST POP PUSH2 0x274 PUSH2 0xE17 JUMP JUMPDEST CALLVALUE DUP1 ISZERO PUSH2 0x382 JUMPI PUSH1 0x0 DUP1 REVERT JUMPDEST POP PUSH2 0x296 PUSH2 0xEA0 JUMP JUMPDEST CALLVALUE DUP1 ISZERO PUSH2 0x397 JUMPI PUSH1 0x0 DUP1 REVERT JUMPDEST POP PUSH2 0x274 PUSH2 0xEA9 JUMP JUMPDEST CALLVALUE DUP1 ISZERO PUSH2 0x3AC JUMPI PUSH1 0x0 DUP1 REVERT JUMPDEST POP PUSH2 0x1E7 PUSH2 0xF31 JUMP JUMPDEST CALLVALUE DUP1 ISZERO PUSH2 0x3C1 JUMPI PUSH1 0x0 DUP1 REVERT JUMPDEST POP PUSH2 0x1E7 PUSH2 0xF40 JUMP JUMPDEST CALLVALUE DUP1 ISZERO PUSH2 0x3D6 JUMPI PUSH1 0x0 DUP1 REVERT JUMPDEST POP PUSH2 0x1E7 PUSH2 0xF4F JUMP JUMPDEST CALLVALUE DUP1 ISZERO PUSH2 0x3EB JUMPI PUSH1 0x0 DUP1 REVERT JUMPDEST POP PUSH2 0x274 PUSH2 0x3FA CALLDATASIZE PUSH1 0x4 PUSH2 0x25D1 JUMP JUMPDEST PUSH2 0xF5E JUMP JUMPDEST CALLVALUE DUP1 ISZERO PUSH2 0x40B JUMPI PUSH1 0x0 DUP1 REVERT JUMPDEST POP PUSH2 0x212 PUSH2 0x1235 JUMP JUMPDEST CALLVALUE DUP1 ISZERO PUSH2 0x420 JUMPI PUSH1 0x0 DUP1 REVERT JUMPDEST POP PUSH2 0x274 PUSH2 0x42F CALLDATASIZE PUSH1 0x4 PUSH2 0x25A1 JUMP JUMPDEST PUSH2 0x12DD JUMP JUMPDEST CALLVALUE DUP1 ISZERO PUSH2 0x440 JUMPI PUSH1 0x0 DUP1 REVERT JUMPDEST POP PUSH2 0x1E7 PUSH2 0x149E JUMP JUMPDEST CALLVALUE DUP1 ISZERO PUSH2 0x455 JUMPI PUSH1 0x0 DUP1 REVERT JUMPDEST POP PUSH2 0x212 PUSH2 0x464 CALLDATASIZE PUSH1 0x4 PUSH2 0x25A1 JUMP JUMPDEST PUSH2 0x14B2 JUMP JUMPDEST CALLVALUE DUP1 ISZERO PUSH2 0x475 JUMPI PUSH1 0x0 DUP1 REVERT JUMPDEST POP PUSH2 0x274 PUSH2 0x484 CALLDATASIZE PUSH1 0x4 PUSH2 0x25A1 JUMP JUMPDEST PUSH2 0x150B JUMP JUMPDEST CALLVALUE DUP1 ISZERO PUSH2 0x495 JUMPI PUSH1 0x0 DUP1 REVERT JUMPDEST POP PUSH2 0x1E7 PUSH2 0x1588 JUMP JUMPDEST CALLVALUE DUP1 ISZERO PUSH2 0x4AA JUMPI PUSH1 0x0 DUP1 REVERT JUMPDEST POP PUSH2 0x274 PUSH2 0x4B9 CALLDATASIZE PUSH1 0x4 PUSH2 0x2381 JUMP JUMPDEST PUSH2 0x1597 JUMP JUMPDEST CALLVALUE DUP1 ISZERO PUSH2 0x4CA JUMPI PUSH1 0x0 DUP1 REVERT JUMPDEST POP PUSH2 0x1E7 PUSH2 0x1658 JUMP JUMPDEST PUSH1 0xCE SLOAD PUSH1 0x1 PUSH1 0x1 PUSH1 0xA0 SHL SUB AND DUP2 JUMP JUMPDEST PUSH1 0xD1 SLOAD DUP2 JUMP JUMPDEST PUSH1 0x0 PUSH2 0x4F2 PUSH2 0x2228 JUMP JUMPDEST PUSH1 0xD0 SLOAD PUSH1 0xCE SLOAD PUSH1 0x40 MLOAD PUSH4 0x4061DC61 PUSH1 0xE1 SHL DUP2 MSTORE PUSH1 0x1 PUSH1 0x1 PUSH1 0xA0 SHL SUB SWAP3 DUP4 AND SWAP3 PUSH4 0x80C3B8C2 SWAP3 PUSH2 0x526 SWAP3 SWAP2 AND SWAP1 PUSH1 0x4 ADD PUSH2 0x26FD JUMP JUMPDEST PUSH2 0x140 PUSH1 0x40 MLOAD DUP1 DUP4 SUB DUP2 DUP7 DUP1 EXTCODESIZE ISZERO DUP1 ISZERO PUSH2 0x53F JUMPI PUSH1 0x0 DUP1 REVERT JUMPDEST POP GAS STATICCALL ISZERO DUP1 ISZERO PUSH2 0x553 JUMPI RETURNDATASIZE PUSH1 0x0 DUP1 RETURNDATACOPY RETURNDATASIZE PUSH1 0x0 REVERT JUMPDEST POP POP POP POP PUSH1 0x40 MLOAD RETURNDATASIZE PUSH1 0x1F NOT PUSH1 0x1F DUP3 ADD AND DUP3 ADD DUP1 PUSH1 0x40 MSTORE POP DUP2 ADD SWAP1 PUSH2 0x577 SWAP2 SWAP1 PUSH2 0x24EF JUMP JUMPDEST PUSH2 0x100 DUP2 ADD MLOAD PUSH1 0xC0 DUP3 ADD MLOAD PUSH2 0x120 DUP4 ADD MLOAD SWAP3 SWAP4 POP SWAP1 SWAP2 TIMESTAMP GT ISZERO PUSH2 0x8A0 JUMPI PUSH1 0x0 PUSH2 0x5AE DUP5 PUSH2 0x120 ADD MLOAD TIMESTAMP PUSH2 0x1667 SWAP1 SWAP2 SWAP1 PUSH4 0xFFFFFFFF AND JUMP JUMPDEST PUSH1 0xD0 SLOAD PUSH1 0xCE SLOAD PUSH1 0x40 MLOAD PUSH4 0x5CF3B15F PUSH1 0xE0 SHL DUP2 MSTORE SWAP3 SWAP4 POP PUSH1 0x0 SWAP3 PUSH1 0x1 PUSH1 0x1 PUSH1 0xA0 SHL SUB SWAP3 DUP4 AND SWAP3 PUSH4 0x5CF3B15F SWAP3 PUSH2 0x5E8 SWAP3 SWAP2 AND SWAP1 PUSH1 0x4 ADD PUSH2 0x26FD JUMP JUMPDEST PUSH1 0x20 PUSH1 0x40 MLOAD DUP1 DUP4 SUB DUP2 DUP7 DUP1 EXTCODESIZE ISZERO DUP1 ISZERO PUSH2 0x600 JUMPI PUSH1 0x0 DUP1 REVERT JUMPDEST POP GAS STATICCALL ISZERO DUP1 ISZERO PUSH2 0x614 JUMPI RETURNDATASIZE PUSH1 0x0 DUP1 RETURNDATACOPY RETURNDATASIZE PUSH1 0x0 REVERT JUMPDEST POP POP POP POP PUSH1 0x40 MLOAD RETURNDATASIZE PUSH1 0x1F NOT PUSH1 0x1F DUP3 ADD AND DUP3 ADD DUP1 PUSH1 0x40 MSTORE POP DUP2 ADD SWAP1 PUSH2 0x638 SWAP2 SWAP1 PUSH2 0x25B9 JUMP JUMPDEST SWAP1 POP PUSH1 0x0 PUSH1 0xD0 PUSH1 0x0 SWAP1 SLOAD SWAP1 PUSH2 0x100 EXP SWAP1 DIV PUSH1 0x1 PUSH1 0x1 PUSH1 0xA0 SHL SUB AND PUSH1 0x1 PUSH1 0x1 PUSH1 0xA0 SHL SUB AND PUSH4 0x79502C55 PUSH1 0x40 MLOAD DUP2 PUSH4 0xFFFFFFFF AND PUSH1 0xE0 SHL DUP2 MSTORE PUSH1 0x4 ADD PUSH1 0x20 PUSH1 0x40 MLOAD DUP1 DUP4 SUB DUP2 DUP7 DUP1 EXTCODESIZE ISZERO DUP1 ISZERO PUSH2 0x68A JUMPI PUSH1 0x0 DUP1 REVERT JUMPDEST POP GAS STATICCALL ISZERO DUP1 ISZERO PUSH2 0x69E JUMPI RETURNDATASIZE PUSH1 0x0 DUP1 RETURNDATACOPY RETURNDATASIZE PUSH1 0x0 REVERT JUMPDEST POP POP POP POP PUSH1 0x40 MLOAD RETURNDATASIZE PUSH1 0x1F NOT PUSH1 0x1F DUP3 ADD AND DUP3 ADD DUP1 PUSH1 0x40 MSTORE POP DUP2 ADD SWAP1 PUSH2 0x6C2 SWAP2 SWAP1 PUSH2 0x239D JUMP JUMPDEST PUSH1 0x1 PUSH1 0x1 PUSH1 0xA0 SHL SUB AND PUSH4 0xC6DFA13F DUP6 DUP5 PUSH1 0x40 MLOAD DUP4 PUSH4 0xFFFFFFFF AND PUSH1 0xE0 SHL DUP2 MSTORE PUSH1 0x4 ADD PUSH2 0x6EF SWAP3 SWAP2 SWAP1 PUSH2 0x2C34 JUMP JUMPDEST PUSH1 0x20 PUSH1 0x40 MLOAD DUP1 DUP4 SUB DUP2 DUP7 DUP1 EXTCODESIZE ISZERO DUP1 ISZERO PUSH2 0x707 JUMPI PUSH1 0x0 DUP1 REVERT JUMPDEST POP GAS STATICCALL ISZERO DUP1 ISZERO PUSH2 0x71B JUMPI RETURNDATASIZE PUSH1 0x0 DUP1 RETURNDATACOPY RETURNDATASIZE PUSH1 0x0 REVERT JUMPDEST POP POP POP POP PUSH1 0x40 MLOAD RETURNDATASIZE PUSH1 0x1F NOT PUSH1 0x1F DUP3 ADD AND DUP3 ADD DUP1 PUSH1 0x40 MSTORE POP DUP2 ADD SWAP1 PUSH2 0x73F SWAP2 SWAP1 PUSH2 0x25B9 JUMP JUMPDEST SWAP1 POP PUSH1 0x0 PUSH2 0x769 PUSH8 0xDE0B6B3A7640000 PUSH2 0x763 DUP8 PUSH2 0x75D DUP7 DUP10 PUSH2 0x168F JUMP JUMPDEST SWAP1 PUSH2 0x168F JUMP JUMPDEST SWAP1 PUSH2 0x16D0 JUMP JUMPDEST SWAP1 POP PUSH1 0x0 PUSH2 0x873 PUSH2 0x2710 PUSH2 0x763 PUSH1 0xD0 PUSH1 0x0 SWAP1 SLOAD SWAP1 PUSH2 0x100 EXP SWAP1 DIV PUSH1 0x1 PUSH1 0x1 PUSH1 0xA0 SHL SUB AND PUSH1 0x1 PUSH1 0x1 PUSH1 0xA0 SHL SUB AND PUSH4 0x79502C55 PUSH1 0x40 MLOAD DUP2 PUSH4 0xFFFFFFFF AND PUSH1 0xE0 SHL DUP2 MSTORE PUSH1 0x4 ADD PUSH1 0x20 PUSH1 0x40 MLOAD DUP1 DUP4 SUB DUP2 DUP7 DUP1 EXTCODESIZE ISZERO DUP1 ISZERO PUSH2 0x7C4 JUMPI PUSH1 0x0 DUP1 REVERT JUMPDEST POP GAS STATICCALL ISZERO DUP1 ISZERO PUSH2 0x7D8 JUMPI RETURNDATASIZE PUSH1 0x0 DUP1 RETURNDATACOPY RETURNDATASIZE PUSH1 0x0 REVERT JUMPDEST POP POP POP POP PUSH1 0x40 MLOAD RETURNDATASIZE PUSH1 0x1F NOT PUSH1 0x1F DUP3 ADD AND DUP3 ADD DUP1 PUSH1 0x40 MSTORE POP DUP2 ADD SWAP1 PUSH2 0x7FC SWAP2 SWAP1 PUSH2 0x239D JUMP JUMPDEST PUSH1 0x1 PUSH1 0x1 PUSH1 0xA0 SHL SUB AND PUSH4 0x249C11BD PUSH1 0x40 MLOAD DUP2 PUSH4 0xFFFFFFFF AND PUSH1 0xE0 SHL DUP2 MSTORE PUSH1 0x4 ADD PUSH1 0x20 PUSH1 0x40 MLOAD DUP1 DUP4 SUB DUP2 DUP7 DUP1 EXTCODESIZE ISZERO DUP1 ISZERO PUSH2 0x834 JUMPI PUSH1 0x0 DUP1 REVERT JUMPDEST POP GAS STATICCALL ISZERO DUP1 ISZERO PUSH2 0x848 JUMPI RETURNDATASIZE PUSH1 0x0 DUP1 RETURNDATACOPY RETURNDATASIZE PUSH1 0x0 REVERT JUMPDEST POP POP POP POP PUSH1 0x40 MLOAD RETURNDATASIZE PUSH1 0x1F NOT PUSH1 0x1F DUP3 ADD AND DUP3 ADD DUP1 PUSH1 0x40 MSTORE POP DUP2 ADD SWAP1 PUSH2 0x86C SWAP2 SWAP1 PUSH2 0x25B9 JUMP JUMPDEST DUP6 SWAP1 PUSH2 0x168F JUMP JUMPDEST PUSH2 0x100 DUP10 ADD MLOAD SWAP1 SWAP2 POP PUSH2 0x886 SWAP1 DUP3 PUSH2 0x1702 JUMP JUMPDEST PUSH1 0xC0 DUP10 ADD MLOAD SWAP1 SWAP8 POP PUSH2 0x898 SWAP1 DUP4 PUSH2 0x1702 JUMP JUMPDEST SWAP6 POP POP POP POP POP POP JUMPDEST PUSH1 0xC9 SLOAD PUSH1 0xD0 SLOAD PUSH1 0x40 MLOAD PUSH4 0x70A08231 PUSH1 0xE0 SHL DUP2 MSTORE PUSH2 0x942 SWAP3 DUP6 SWAP3 PUSH2 0x93C SWAP3 DUP7 SWAP3 PUSH2 0x100 SWAP1 DIV PUSH1 0x1 PUSH1 0x1 PUSH1 0xA0 SHL SUB SWAP1 DUP2 AND SWAP3 PUSH4 0x70A08231 SWAP3 PUSH2 0x8E6 SWAP3 SWAP1 SWAP2 AND SWAP1 PUSH1 0x4 ADD PUSH2 0x26FD JUMP JUMPDEST PUSH1 0x20 PUSH1 0x40 MLOAD DUP1 DUP4 SUB DUP2 DUP7 DUP1 EXTCODESIZE ISZERO DUP1 ISZERO PUSH2 0x8FE JUMPI PUSH1 0x0 DUP1 REVERT JUMPDEST POP GAS STATICCALL ISZERO DUP1 ISZERO PUSH2 0x912 JUMPI RETURNDATASIZE PUSH1 0x0 DUP1 RETURNDATACOPY RETURNDATASIZE PUSH1 0x0 REVERT JUMPDEST POP POP POP POP PUSH1 0x40 MLOAD RETURNDATASIZE PUSH1 0x1F NOT PUSH1 0x1F DUP3 ADD AND DUP3 ADD DUP1 PUSH1 0x40 MSTORE POP DUP2 ADD SWAP1 PUSH2 0x936 SWAP2 SWAP1 PUSH2 0x25B9 JUMP JUMPDEST SWAP1 PUSH2 0x1702 JUMP JUMPDEST SWAP1 PUSH2 0x1667 JUMP JUMPDEST SWAP4 POP POP POP POP SWAP1 JUMP JUMPDEST PUSH1 0xD2 DUP2 DUP2 SLOAD DUP2 LT PUSH2 0x957 JUMPI INVALID JUMPDEST PUSH1 0x0 SWAP2 DUP3 MSTORE PUSH1 0x20 SWAP1 SWAP2 KECCAK256 ADD SLOAD PUSH1 0x1 PUSH1 0x1 PUSH1 0xA0 SHL SUB AND SWAP1 POP DUP2 JUMP JUMPDEST PUSH1 0xD4 SLOAD PUSH1 0x1 PUSH1 0x1 PUSH1 0xA0 SHL SUB AND CALLER EQ PUSH2 0x9A4 JUMPI PUSH1 0x40 MLOAD PUSH3 0x461BCD PUSH1 0xE5 SHL DUP2 MSTORE PUSH1 0x4 ADD PUSH2 0x99B SWAP1 PUSH2 0x2BEB JUMP JUMPDEST PUSH1 0x40 MLOAD DUP1 SWAP2 SUB SWAP1 REVERT JUMPDEST PUSH1 0x2 PUSH1 0x97 SLOAD EQ ISZERO PUSH2 0x9C7 JUMPI PUSH1 0x40 MLOAD PUSH3 0x461BCD PUSH1 0xE5 SHL DUP2 MSTORE PUSH1 0x4 ADD PUSH2 0x99B SWAP1 PUSH2 0x2B5E JUMP JUMPDEST PUSH1 0x2 PUSH1 0x97 SSTORE PUSH1 0x0 PUSH2 0x9D7 DUP3 PUSH2 0x14B2 JUMP JUMPDEST PUSH1 0xCC SLOAD PUSH1 0xD3 SLOAD PUSH1 0x40 MLOAD PUSH4 0x5AE2FB39 PUSH1 0xE1 SHL DUP2 MSTORE SWAP3 SWAP4 POP PUSH1 0x1 PUSH1 0x1 PUSH1 0xA0 SHL SUB SWAP1 SWAP2 AND SWAP2 PUSH4 0xB5C5F672 SWAP2 PUSH2 0xA10 SWAP2 ADDRESS SWAP2 SWAP1 DUP7 SWAP1 PUSH1 0x4 ADD PUSH2 0x2711 JUMP JUMPDEST PUSH1 0x0 PUSH1 0x40 MLOAD DUP1 DUP4 SUB DUP2 PUSH1 0x0 DUP8 DUP1 EXTCODESIZE ISZERO DUP1 ISZERO PUSH2 0xA2A JUMPI PUSH1 0x0 DUP1 REVERT JUMPDEST POP GAS CALL ISZERO DUP1 ISZERO PUSH2 0xA3E JUMPI RETURNDATASIZE PUSH1 0x0 DUP1 RETURNDATACOPY RETURNDATASIZE PUSH1 0x0 REVERT JUMPDEST POP POP PUSH1 0xD0 SLOAD PUSH1 0xCE SLOAD PUSH1 0xCF SLOAD PUSH1 0x40 MLOAD PUSH4 0x70A08231 PUSH1 0xE0 SHL DUP2 MSTORE PUSH1 0x1 PUSH1 0x1 PUSH1 0xA0 SHL SUB SWAP4 DUP5 AND SWAP6 POP PUSH4 0xF3FEF3A3 SWAP5 POP SWAP2 DUP4 AND SWAP3 AND SWAP1 PUSH4 0x70A08231 SWAP1 PUSH2 0xA84 SWAP1 ADDRESS SWAP1 PUSH1 0x4 ADD PUSH2 0x26FD JUMP JUMPDEST PUSH1 0x20 PUSH1 0x40 MLOAD DUP1 DUP4 SUB DUP2 DUP7 DUP1 EXTCODESIZE ISZERO DUP1 ISZERO PUSH2 0xA9C JUMPI PUSH1 0x0 DUP1 REVERT JUMPDEST POP GAS STATICCALL ISZERO DUP1 ISZERO PUSH2 0xAB0 JUMPI RETURNDATASIZE PUSH1 0x0 DUP1 RETURNDATACOPY RETURNDATASIZE PUSH1 0x0 REVERT JUMPDEST POP POP POP POP PUSH1 0x40 MLOAD RETURNDATASIZE PUSH1 0x1F NOT PUSH1 0x1F DUP3 ADD AND DUP3 ADD DUP1 PUSH1 0x40 MSTORE POP DUP2 ADD SWAP1 PUSH2 0xAD4 SWAP2 SWAP1 PUSH2 0x25B9 JUMP JUMPDEST PUSH1 0x40 MLOAD DUP4 PUSH4 0xFFFFFFFF AND PUSH1 0xE0 SHL DUP2 MSTORE PUSH1 0x4 ADD PUSH2 0xAF1 SWAP3 SWAP2 SWAP1 PUSH2 0x2770 JUMP JUMPDEST PUSH1 0x0 PUSH1 0x40 MLOAD DUP1 DUP4 SUB DUP2 PUSH1 0x0 DUP8 DUP1 EXTCODESIZE ISZERO DUP1 ISZERO PUSH2 0xB0B JUMPI PUSH1 0x0 DUP1 REVERT JUMPDEST POP GAS CALL ISZERO DUP1 ISZERO PUSH2 0xB1F JUMPI RETURNDATASIZE PUSH1 0x0 DUP1 RETURNDATACOPY RETURNDATASIZE PUSH1 0x0 REVERT JUMPDEST POP POP PUSH1 0xC9 SLOAD PUSH1 0x40 MLOAD PUSH4 0x70A08231 PUSH1 0xE0 SHL DUP2 MSTORE PUSH1 0x0 SWAP4 POP PUSH2 0x100 SWAP1 SWAP2 DIV PUSH1 0x1 PUSH1 0x1 PUSH1 0xA0 SHL SUB AND SWAP2 POP PUSH4 0x70A08231 SWAP1 PUSH2 0xB5A SWAP1 ADDRESS SWAP1 PUSH1 0x4 ADD PUSH2 0x26FD JUMP JUMPDEST PUSH1 0x20 PUSH1 0x40 MLOAD DUP1 DUP4 SUB DUP2 DUP7 DUP1 EXTCODESIZE ISZERO DUP1 ISZERO PUSH2 0xB72 JUMPI PUSH1 0x0 DUP1 REVERT JUMPDEST POP GAS STATICCALL ISZERO DUP1 ISZERO PUSH2 0xB86 JUMPI RETURNDATASIZE PUSH1 0x0 DUP1 RETURNDATACOPY RETURNDATASIZE PUSH1 0x0 REVERT JUMPDEST POP POP POP POP PUSH1 0x40 MLOAD RETURNDATASIZE PUSH1 0x1F NOT PUSH1 0x1F DUP3 ADD AND DUP3 ADD DUP1 PUSH1 0x40 MSTORE POP DUP2 ADD SWAP1 PUSH2 0xBAA SWAP2 SWAP1 PUSH2 0x25B9 JUMP JUMPDEST PUSH1 0xC9 SLOAD SWAP1 SWAP2 POP PUSH2 0xBC9 SWAP1 PUSH2 0x100 SWAP1 DIV PUSH1 0x1 PUSH1 0x1 PUSH1 0xA0 SHL SUB AND CALLER DUP4 PUSH2 0x1727 JUMP JUMPDEST POP POP PUSH1 0x1 PUSH1 0x97 SSTORE POP JUMP JUMPDEST PUSH1 0xD5 PUSH1 0x20 MSTORE PUSH1 0x0 SWAP1 DUP2 MSTORE PUSH1 0x40 SWAP1 KECCAK256 SLOAD PUSH1 0xFF AND DUP2 JUMP JUMPDEST PUSH1 0xD3 SLOAD DUP2 JUMP JUMPDEST PUSH2 0xBF6 PUSH2 0x1782 JUMP JUMPDEST PUSH1 0x1 PUSH1 0x1 PUSH1 0xA0 SHL SUB AND PUSH2 0xC07 PUSH2 0xF31 JUMP JUMPDEST PUSH1 0x1 PUSH1 0x1 PUSH1 0xA0 SHL SUB AND EQ PUSH2 0xC2D JUMPI PUSH1 0x40 MLOAD PUSH3 0x461BCD PUSH1 0xE5 SHL DUP2 MSTORE PUSH1 0x4 ADD PUSH2 0x99B SWAP1 PUSH2 0x2A78 JUMP JUMPDEST PUSH2 0xC35 PUSH2 0x1786 JUMP JUMPDEST PUSH1 0xCA SLOAD PUSH1 0xCD SLOAD PUSH2 0xC54 SWAP2 PUSH1 0x1 PUSH1 0x1 PUSH1 0xA0 SHL SUB SWAP2 DUP3 AND SWAP2 AND PUSH1 0x0 NOT PUSH2 0x17F4 JUMP JUMPDEST PUSH1 0xCA SLOAD PUSH1 0xC9 SLOAD PUSH2 0xC78 SWAP2 PUSH1 0x1 PUSH1 0x1 PUSH1 0xA0 SHL SUB PUSH2 0x100 SWAP1 SWAP3 DIV DUP3 AND SWAP2 AND PUSH1 0x0 NOT PUSH2 0x17F4 JUMP JUMPDEST JUMP JUMPDEST PUSH1 0x65 SLOAD PUSH1 0xFF AND SWAP1 JUMP JUMPDEST PUSH1 0xCB SLOAD PUSH1 0x1 PUSH1 0x1 PUSH1 0xA0 SHL SUB AND DUP2 JUMP JUMPDEST PUSH2 0xC9A PUSH2 0x1782 JUMP JUMPDEST PUSH1 0x1 PUSH1 0x1 PUSH1 0xA0 SHL SUB AND PUSH2 0xCAB PUSH2 0xF31 JUMP JUMPDEST PUSH1 0x1 PUSH1 0x1 PUSH1 0xA0 SHL SUB AND EQ PUSH2 0xCD1 JUMPI PUSH1 0x40 MLOAD PUSH3 0x461BCD PUSH1 0xE5 SHL DUP2 MSTORE PUSH1 0x4 ADD PUSH2 0x99B SWAP1 PUSH2 0x2A78 JUMP JUMPDEST PUSH1 0xD4 DUP1 SLOAD PUSH1 0x1 PUSH1 0x1 PUSH1 0xA0 SHL SUB NOT AND PUSH1 0x1 PUSH1 0x1 PUSH1 0xA0 SHL SUB SWAP3 SWAP1 SWAP3 AND SWAP2 SWAP1 SWAP2 OR SWAP1 SSTORE JUMP JUMPDEST PUSH1 0xCA SLOAD PUSH1 0x1 PUSH1 0x1 PUSH1 0xA0 SHL SUB AND DUP2 JUMP JUMPDEST PUSH2 0xD0A PUSH2 0x1782 JUMP JUMPDEST PUSH1 0x1 PUSH1 0x1 PUSH1 0xA0 SHL SUB AND PUSH2 0xD1B PUSH2 0xF31 JUMP JUMPDEST PUSH1 0x1 PUSH1 0x1 PUSH1 0xA0 SHL SUB AND EQ PUSH2 0xD41 JUMPI PUSH1 0x40 MLOAD PUSH3 0x461BCD PUSH1 0xE5 SHL DUP2 MSTORE PUSH1 0x4 ADD PUSH2 0x99B SWAP1 PUSH2 0x2A78 JUMP JUMPDEST DUP3 PUSH1 0x0 JUMPDEST DUP2 DUP2 LT ISZERO PUSH2 0xDC3 JUMPI DUP4 DUP4 DUP3 DUP2 DUP2 LT PUSH2 0xD59 JUMPI INVALID JUMPDEST SWAP1 POP PUSH1 0x20 MUL ADD PUSH1 0x20 DUP2 ADD SWAP1 PUSH2 0xD6E SWAP2 SWAP1 PUSH2 0x24B7 JUMP JUMPDEST PUSH1 0xD5 PUSH1 0x0 DUP9 DUP9 DUP6 DUP2 DUP2 LT PUSH2 0xD7E JUMPI INVALID JUMPDEST SWAP1 POP PUSH1 0x20 MUL ADD PUSH1 0x20 DUP2 ADD SWAP1 PUSH2 0xD93 SWAP2 SWAP1 PUSH2 0x2381 JUMP JUMPDEST PUSH1 0x1 PUSH1 0x1 PUSH1 0xA0 SHL SUB AND DUP2 MSTORE PUSH1 0x20 DUP2 ADD SWAP2 SWAP1 SWAP2 MSTORE PUSH1 0x40 ADD PUSH1 0x0 KECCAK256 DUP1 SLOAD PUSH1 0xFF NOT AND SWAP2 ISZERO ISZERO SWAP2 SWAP1 SWAP2 OR SWAP1 SSTORE PUSH1 0x1 ADD PUSH2 0xD45 JUMP JUMPDEST POP PUSH32 0xD1721B10AC5FE95D2627D512AA0F92C34ADA0347C874ADF414CF51AF5760FF56 DUP6 DUP6 DUP6 DUP6 PUSH1 0x40 MLOAD PUSH2 0xDF9 SWAP5 SWAP4 SWAP3 SWAP2 SWAP1 PUSH2 0x2789 JUMP JUMPDEST PUSH1 0x40 MLOAD DUP1 SWAP2 SUB SWAP1 LOG1 POP POP POP POP POP JUMP JUMPDEST PUSH1 0xD0 SLOAD PUSH1 0x1 PUSH1 0x1 PUSH1 0xA0 SHL SUB AND DUP2 JUMP JUMPDEST PUSH2 0xE1F PUSH2 0x1782 JUMP JUMPDEST PUSH1 0x1 PUSH1 0x1 PUSH1 0xA0 SHL SUB AND PUSH2 0xE30 PUSH2 0xF31 JUMP JUMPDEST PUSH1 0x1 PUSH1 0x1 PUSH1 0xA0 SHL SUB AND EQ PUSH2 0xE56 JUMPI PUSH1 0x40 MLOAD PUSH3 0x461BCD PUSH1 0xE5 SHL DUP2 MSTORE PUSH1 0x4 ADD PUSH2 0x99B SWAP1 PUSH2 0x2A78 JUMP JUMPDEST PUSH1 0x33 SLOAD PUSH1 0x40 MLOAD PUSH1 0x0 SWAP2 PUSH1 0x1 PUSH1 0x1 PUSH1 0xA0 SHL SUB AND SWAP1 PUSH32 0x8BE0079C531659141344CD1FD0A4F28419497F9722A3DAAFE3B4186F6B6457E0 SWAP1 DUP4 SWAP1 LOG3 PUSH1 0x33 DUP1 SLOAD PUSH1 0x1 PUSH1 0x1 PUSH1 0xA0 SHL SUB NOT AND SWAP1 SSTORE JUMP JUMPDEST PUSH1 0xC9 SLOAD PUSH1 0xFF AND DUP2 JUMP JUMPDEST PUSH2 0xEB1 PUSH2 0x1782 JUMP JUMPDEST PUSH1 0x1 PUSH1 0x1 PUSH1 0xA0 SHL SUB AND PUSH2 0xEC2 PUSH2 0xF31 JUMP JUMPDEST PUSH1 0x1 PUSH1 0x1 PUSH1 0xA0 SHL SUB AND EQ PUSH2 0xEE8 JUMPI PUSH1 0x40 MLOAD PUSH3 0x461BCD PUSH1 0xE5 SHL DUP2 MSTORE PUSH1 0x4 ADD PUSH2 0x99B SWAP1 PUSH2 0x2A78 JUMP JUMPDEST PUSH2 0xEF0 PUSH2 0x18B7 JUMP JUMPDEST PUSH1 0xCA SLOAD PUSH1 0xCD SLOAD PUSH2 0xF0E SWAP2 PUSH1 0x1 PUSH1 0x1 PUSH1 0xA0 SHL SUB SWAP2 DUP3 AND SWAP2 AND PUSH1 0x0 PUSH2 0x17F4 JUMP JUMPDEST PUSH1 0xCA SLOAD PUSH1 0xC9 SLOAD PUSH2 0xC78 SWAP2 PUSH1 0x1 PUSH1 0x1 PUSH1 0xA0 SHL SUB PUSH2 0x100 SWAP1 SWAP3 DIV DUP3 AND SWAP2 AND PUSH1 0x0 PUSH2 0x17F4 JUMP JUMPDEST PUSH1 0x33 SLOAD PUSH1 0x1 PUSH1 0x1 PUSH1 0xA0 SHL SUB AND SWAP1 JUMP JUMPDEST PUSH1 0xCD SLOAD PUSH1 0x1 PUSH1 0x1 PUSH1 0xA0 SHL SUB AND DUP2 JUMP JUMPDEST PUSH1 0xCC SLOAD PUSH1 0x1 PUSH1 0x1 PUSH1 0xA0 SHL SUB AND DUP2 JUMP JUMPDEST PUSH1 0x0 SLOAD PUSH2 0x100 SWAP1 DIV PUSH1 0xFF AND DUP1 PUSH2 0xF77 JUMPI POP PUSH2 0xF77 PUSH2 0x1912 JUMP JUMPDEST DUP1 PUSH2 0xF85 JUMPI POP PUSH1 0x0 SLOAD PUSH1 0xFF AND ISZERO JUMPDEST PUSH2 0xFA1 JUMPI PUSH1 0x40 MLOAD PUSH3 0x461BCD PUSH1 0xE5 SHL DUP2 MSTORE PUSH1 0x4 ADD PUSH2 0x99B SWAP1 PUSH2 0x29E9 JUMP JUMPDEST PUSH1 0x0 SLOAD PUSH2 0x100 SWAP1 DIV PUSH1 0xFF AND ISZERO DUP1 ISZERO PUSH2 0xFCC JUMPI PUSH1 0x0 DUP1 SLOAD PUSH1 0xFF NOT PUSH2 0xFF00 NOT SWAP1 SWAP2 AND PUSH2 0x100 OR AND PUSH1 0x1 OR SWAP1 SSTORE JUMPDEST PUSH2 0xFD4 PUSH2 0x1923 JUMP JUMPDEST PUSH2 0xFDC PUSH2 0x19B6 JUMP JUMPDEST PUSH1 0xD3 DUP12 SWAP1 SSTORE PUSH1 0xCC DUP1 SLOAD PUSH1 0x1 PUSH1 0x1 PUSH1 0xA0 SHL SUB NOT SWAP1 DUP2 AND PUSH1 0x1 PUSH1 0x1 PUSH1 0xA0 SHL SUB DUP14 DUP2 AND SWAP2 SWAP1 SWAP2 OR SWAP1 SWAP3 SSTORE PUSH1 0xCD DUP1 SLOAD DUP3 AND DUP13 DUP5 AND OR SWAP1 SSTORE PUSH1 0xD0 DUP1 SLOAD DUP3 AND DUP12 DUP5 AND OR SWAP1 SSTORE PUSH1 0x0 PUSH1 0xD1 SSTORE PUSH1 0xC9 DUP1 SLOAD PUSH1 0xFF NOT AND DUP6 ISZERO ISZERO OR PUSH2 0x100 PUSH1 0x1 PUSH1 0xA8 SHL SUB NOT AND PUSH2 0x100 DUP11 DUP6 AND SWAP1 DUP2 MUL SWAP2 SWAP1 SWAP2 OR SWAP1 SWAP2 SSTORE PUSH1 0xCB DUP1 SLOAD SWAP1 SWAP3 AND DUP9 DUP5 AND OR SWAP2 DUP3 SWAP1 SSTORE SWAP2 AND EQ ISZERO PUSH2 0x109F JUMPI PUSH1 0xC9 DUP1 SLOAD PUSH1 0xFF NOT AND PUSH1 0x1 OR SWAP1 SSTORE PUSH1 0x40 DUP1 MLOAD DUP1 DUP3 ADD SWAP1 SWAP2 MSTORE PUSH1 0x1 PUSH1 0x1 PUSH1 0xA0 SHL SUB DUP1 DUP12 AND DUP3 MSTORE PUSH1 0xCB SLOAD AND PUSH1 0x20 DUP3 ADD MSTORE PUSH2 0x1099 SWAP1 PUSH1 0xD2 SWAP1 PUSH1 0x2 PUSH2 0x2293 JUMP JUMPDEST POP PUSH2 0x10D9 JUMP JUMPDEST PUSH1 0x40 DUP1 MLOAD PUSH1 0x60 DUP2 ADD DUP3 MSTORE PUSH1 0x1 PUSH1 0x1 PUSH1 0xA0 SHL SUB DUP1 DUP13 AND DUP3 MSTORE PUSH1 0xCB SLOAD DUP2 AND PUSH1 0x20 DUP4 ADD MSTORE DUP9 AND SWAP2 DUP2 ADD SWAP2 SWAP1 SWAP2 MSTORE PUSH2 0x10D7 SWAP1 PUSH1 0xD2 SWAP1 PUSH1 0x3 PUSH2 0x2293 JUMP JUMPDEST POP JUMPDEST PUSH1 0xCA DUP1 SLOAD PUSH1 0x1 PUSH1 0x1 PUSH1 0xA0 SHL SUB DUP1 DUP8 AND PUSH1 0x1 PUSH1 0x1 PUSH1 0xA0 SHL SUB NOT SWAP3 DUP4 AND OR SWAP1 SWAP3 SSTORE PUSH1 0xD4 DUP1 SLOAD DUP7 DUP5 AND SWAP1 DUP4 AND OR SWAP1 SSTORE PUSH1 0xCE DUP1 SLOAD SWAP3 DUP11 AND SWAP3 SWAP1 SWAP2 AND SWAP2 SWAP1 SWAP2 OR SWAP1 SSTORE PUSH2 0x111E PUSH2 0x2228 JUMP JUMPDEST PUSH1 0xD0 SLOAD PUSH1 0xCE SLOAD PUSH1 0x40 MLOAD PUSH4 0x4061DC61 PUSH1 0xE1 SHL DUP2 MSTORE PUSH1 0x1 PUSH1 0x1 PUSH1 0xA0 SHL SUB SWAP3 DUP4 AND SWAP3 PUSH4 0x80C3B8C2 SWAP3 PUSH2 0x1152 SWAP3 SWAP2 AND SWAP1 PUSH1 0x4 ADD PUSH2 0x26FD JUMP JUMPDEST PUSH2 0x140 PUSH1 0x40 MLOAD DUP1 DUP4 SUB DUP2 DUP7 DUP1 EXTCODESIZE ISZERO DUP1 ISZERO PUSH2 0x116B JUMPI PUSH1 0x0 DUP1 REVERT JUMPDEST POP GAS STATICCALL ISZERO DUP1 ISZERO PUSH2 0x117F JUMPI RETURNDATASIZE PUSH1 0x0 DUP1 RETURNDATACOPY RETURNDATASIZE PUSH1 0x0 REVERT JUMPDEST POP POP POP POP PUSH1 0x40 MLOAD RETURNDATASIZE PUSH1 0x1F NOT PUSH1 0x1F DUP3 ADD AND DUP3 ADD DUP1 PUSH1 0x40 MSTORE POP DUP2 ADD SWAP1 PUSH2 0x11A3 SWAP2 SWAP1 PUSH2 0x24EF JUMP JUMPDEST PUSH1 0x20 DUP2 ADD MLOAD PUSH1 0xCF DUP1 SLOAD PUSH1 0x1 PUSH1 0x1 PUSH1 0xA0 SHL SUB NOT AND PUSH1 0x1 PUSH1 0x1 PUSH1 0xA0 SHL SUB SWAP3 DUP4 AND OR SWAP1 SSTORE PUSH1 0xC9 SLOAD SWAP2 SWAP3 POP PUSH2 0x11DD SWAP2 PUSH2 0x100 SWAP1 DIV AND DUP11 PUSH1 0x0 NOT PUSH2 0x17F4 JUMP JUMPDEST PUSH1 0xCF SLOAD PUSH2 0x11F6 SWAP1 PUSH1 0x1 PUSH1 0x1 PUSH1 0xA0 SHL SUB AND DUP13 PUSH1 0x0 NOT PUSH2 0x17F4 JUMP JUMPDEST PUSH1 0xCA SLOAD PUSH1 0xCD SLOAD PUSH2 0x1215 SWAP2 PUSH1 0x1 PUSH1 0x1 PUSH1 0xA0 SHL SUB SWAP2 DUP3 AND SWAP2 AND PUSH1 0x0 NOT PUSH2 0x17F4 JUMP JUMPDEST POP DUP1 ISZERO PUSH2 0x1228 JUMPI PUSH1 0x0 DUP1 SLOAD PUSH2 0xFF00 NOT AND SWAP1 SSTORE JUMPDEST POP POP POP POP POP POP POP POP POP POP POP JUMP JUMPDEST PUSH1 0x0 DUP1 PUSH2 0x1240 PUSH2 0x1A34 JUMP JUMPDEST SWAP1 POP PUSH2 0x12D7 PUSH1 0xCF PUSH1 0x0 SWAP1 SLOAD SWAP1 PUSH2 0x100 EXP SWAP1 DIV PUSH1 0x1 PUSH1 0x1 PUSH1 0xA0 SHL SUB AND PUSH1 0x1 PUSH1 0x1 PUSH1 0xA0 SHL SUB AND PUSH4 0x18160DDD PUSH1 0x40 MLOAD DUP2 PUSH4 0xFFFFFFFF AND PUSH1 0xE0 SHL DUP2 MSTORE PUSH1 0x4 ADD PUSH1 0x20 PUSH1 0x40 MLOAD DUP1 DUP4 SUB DUP2 DUP7 DUP1 EXTCODESIZE ISZERO DUP1 ISZERO PUSH2 0x1293 JUMPI PUSH1 0x0 DUP1 REVERT JUMPDEST POP GAS STATICCALL ISZERO DUP1 ISZERO PUSH2 0x12A7 JUMPI RETURNDATASIZE PUSH1 0x0 DUP1 RETURNDATACOPY RETURNDATASIZE PUSH1 0x0 REVERT JUMPDEST POP POP POP POP PUSH1 0x40 MLOAD RETURNDATASIZE PUSH1 0x1F NOT PUSH1 0x1F DUP3 ADD AND DUP3 ADD DUP1 PUSH1 0x40 MSTORE POP DUP2 ADD SWAP1 PUSH2 0x12CB SWAP2 SWAP1 PUSH2 0x25B9 JUMP JUMPDEST PUSH2 0x763 DUP4 PUSH2 0x75D PUSH2 0x4E8 JUMP JUMPDEST SWAP2 POP POP SWAP1 JUMP JUMPDEST PUSH1 0xD4 SLOAD PUSH1 0x1 PUSH1 0x1 PUSH1 0xA0 SHL SUB AND CALLER EQ PUSH2 0x1307 JUMPI PUSH1 0x40 MLOAD PUSH3 0x461BCD PUSH1 0xE5 SHL DUP2 MSTORE PUSH1 0x4 ADD PUSH2 0x99B SWAP1 PUSH2 0x2BEB JUMP JUMPDEST PUSH1 0x2 PUSH1 0x97 SLOAD EQ ISZERO PUSH2 0x132A JUMPI PUSH1 0x40 MLOAD PUSH3 0x461BCD PUSH1 0xE5 SHL DUP2 MSTORE PUSH1 0x4 ADD PUSH2 0x99B SWAP1 PUSH2 0x2B5E JUMP JUMPDEST PUSH1 0x2 PUSH1 0x97 SSTORE PUSH1 0xC9 SLOAD PUSH2 0x134C SWAP1 PUSH2 0x100 SWAP1 DIV PUSH1 0x1 PUSH1 0x1 PUSH1 0xA0 SHL SUB AND CALLER ADDRESS DUP5 PUSH2 0x1AC6 JUMP JUMPDEST PUSH1 0xD0 SLOAD PUSH1 0xCE SLOAD PUSH1 0x40 MLOAD PUSH4 0x11F9FBC9 PUSH1 0xE2 SHL DUP2 MSTORE PUSH1 0x1 PUSH1 0x1 PUSH1 0xA0 SHL SUB SWAP3 DUP4 AND SWAP3 PUSH4 0x47E7EF24 SWAP3 PUSH2 0x1382 SWAP3 SWAP2 AND SWAP1 DUP6 SWAP1 PUSH1 0x4 ADD PUSH2 0x2770 JUMP JUMPDEST PUSH1 0x0 PUSH1 0x40 MLOAD DUP1 DUP4 SUB DUP2 PUSH1 0x0 DUP8 DUP1 EXTCODESIZE ISZERO DUP1 ISZERO PUSH2 0x139C JUMPI PUSH1 0x0 DUP1 REVERT JUMPDEST POP GAS CALL ISZERO DUP1 ISZERO PUSH2 0x13B0 JUMPI RETURNDATASIZE PUSH1 0x0 DUP1 RETURNDATACOPY RETURNDATASIZE PUSH1 0x0 REVERT JUMPDEST POP POP PUSH1 0xCC SLOAD PUSH1 0xD3 SLOAD PUSH1 0xCF SLOAD PUSH1 0x40 MLOAD PUSH4 0x70A08231 PUSH1 0xE0 SHL DUP2 MSTORE PUSH1 0x1 PUSH1 0x1 PUSH1 0xA0 SHL SUB SWAP4 DUP5 AND SWAP6 POP PUSH4 0xEFE6A8B SWAP5 POP ADDRESS SWAP4 SWAP1 SWAP2 AND SWAP1 PUSH4 0x70A08231 SWAP1 PUSH2 0x13F6 SWAP1 DUP6 SWAP1 PUSH1 0x4 ADD PUSH2 0x26FD JUMP JUMPDEST PUSH1 0x20 PUSH1 0x40 MLOAD DUP1 DUP4 SUB DUP2 DUP7 DUP1 EXTCODESIZE ISZERO DUP1 ISZERO PUSH2 0x140E JUMPI PUSH1 0x0 DUP1 REVERT JUMPDEST POP GAS STATICCALL ISZERO DUP1 ISZERO PUSH2 0x1422 JUMPI RETURNDATASIZE PUSH1 0x0 DUP1 RETURNDATACOPY RETURNDATASIZE PUSH1 0x0 REVERT JUMPDEST POP POP POP POP PUSH1 0x40 MLOAD RETURNDATASIZE PUSH1 0x1F NOT PUSH1 0x1F DUP3 ADD AND DUP3 ADD DUP1 PUSH1 0x40 MSTORE POP DUP2 ADD SWAP1 PUSH2 0x1446 SWAP2 SWAP1 PUSH2 0x25B9 JUMP JUMPDEST PUSH1 0x40 MLOAD DUP5 PUSH4 0xFFFFFFFF AND PUSH1 0xE0 SHL DUP2 MSTORE PUSH1 0x4 ADD PUSH2 0x1464 SWAP4 SWAP3 SWAP2 SWAP1 PUSH2 0x2711 JUMP JUMPDEST PUSH1 0x0 PUSH1 0x40 MLOAD DUP1 DUP4 SUB DUP2 PUSH1 0x0 DUP8 DUP1 EXTCODESIZE ISZERO DUP1 ISZERO PUSH2 0x147E JUMPI PUSH1 0x0 DUP1 REVERT JUMPDEST POP GAS CALL ISZERO DUP1 ISZERO PUSH2 0x1492 JUMPI RETURNDATASIZE PUSH1 0x0 DUP1 RETURNDATACOPY RETURNDATASIZE PUSH1 0x0 REVERT JUMPDEST POP POP PUSH1 0x1 PUSH1 0x97 SSTORE POP POP POP JUMP JUMPDEST PUSH1 0xC9 SLOAD PUSH2 0x100 SWAP1 DIV PUSH1 0x1 PUSH1 0x1 PUSH1 0xA0 SHL SUB AND DUP2 JUMP JUMPDEST PUSH1 0x0 PUSH2 0x1505 PUSH2 0x14BF PUSH2 0x4E8 JUMP JUMPDEST PUSH1 0xCF SLOAD PUSH1 0x40 DUP1 MLOAD PUSH4 0x18160DDD PUSH1 0xE0 SHL DUP2 MSTORE SWAP1 MLOAD PUSH2 0x763 SWAP3 PUSH1 0x1 PUSH1 0x1 PUSH1 0xA0 SHL SUB AND SWAP2 PUSH4 0x18160DDD SWAP2 PUSH1 0x4 DUP1 DUP4 ADD SWAP3 PUSH1 0x20 SWAP3 SWAP2 SWAP1 DUP3 SWAP1 SUB ADD DUP2 DUP7 DUP1 EXTCODESIZE ISZERO DUP1 ISZERO PUSH2 0x834 JUMPI PUSH1 0x0 DUP1 REVERT JUMPDEST SWAP3 SWAP2 POP POP JUMP JUMPDEST PUSH1 0xD4 SLOAD PUSH1 0x1 PUSH1 0x1 PUSH1 0xA0 SHL SUB AND CALLER EQ DUP1 PUSH2 0x1533 JUMPI POP CALLER PUSH1 0x0 SWAP1 DUP2 MSTORE PUSH1 0xD5 PUSH1 0x20 MSTORE PUSH1 0x40 SWAP1 KECCAK256 SLOAD PUSH1 0xFF AND JUMPDEST PUSH2 0x154F JUMPI PUSH1 0x40 MLOAD PUSH3 0x461BCD PUSH1 0xE5 SHL DUP2 MSTORE PUSH1 0x4 ADD PUSH2 0x99B SWAP1 PUSH2 0x2AE4 JUMP JUMPDEST PUSH1 0x2 PUSH1 0x97 SLOAD EQ ISZERO PUSH2 0x1572 JUMPI PUSH1 0x40 MLOAD PUSH3 0x461BCD PUSH1 0xE5 SHL DUP2 MSTORE PUSH1 0x4 ADD PUSH2 0x99B SWAP1 PUSH2 0x2B5E JUMP JUMPDEST PUSH1 0x2 PUSH1 0x97 SSTORE PUSH2 0x1580 DUP2 PUSH2 0x1AED JUMP JUMPDEST POP PUSH1 0x1 PUSH1 0x97 SSTORE JUMP JUMPDEST PUSH1 0xCF SLOAD PUSH1 0x1 PUSH1 0x1 PUSH1 0xA0 SHL SUB AND DUP2 JUMP JUMPDEST PUSH2 0x159F PUSH2 0x1782 JUMP JUMPDEST PUSH1 0x1 PUSH1 0x1 PUSH1 0xA0 SHL SUB AND PUSH2 0x15B0 PUSH2 0xF31 JUMP JUMPDEST PUSH1 0x1 PUSH1 0x1 PUSH1 0xA0 SHL SUB AND EQ PUSH2 0x15D6 JUMPI PUSH1 0x40 MLOAD PUSH3 0x461BCD PUSH1 0xE5 SHL DUP2 MSTORE PUSH1 0x4 ADD PUSH2 0x99B SWAP1 PUSH2 0x2A78 JUMP JUMPDEST PUSH1 0x1 PUSH1 0x1 PUSH1 0xA0 SHL SUB DUP2 AND PUSH2 0x15FC JUMPI PUSH1 0x40 MLOAD PUSH3 0x461BCD PUSH1 0xE5 SHL DUP2 MSTORE PUSH1 0x4 ADD PUSH2 0x99B SWAP1 PUSH2 0x288E JUMP JUMPDEST PUSH1 0x33 SLOAD PUSH1 0x40 MLOAD PUSH1 0x1 PUSH1 0x1 PUSH1 0xA0 SHL SUB DUP1 DUP5 AND SWAP3 AND SWAP1 PUSH32 0x8BE0079C531659141344CD1FD0A4F28419497F9722A3DAAFE3B4186F6B6457E0 SWAP1 PUSH1 0x0 SWAP1 LOG3 PUSH1 0x33 DUP1 SLOAD PUSH1 0x1 PUSH1 0x1 PUSH1 0xA0 SHL SUB NOT AND PUSH1 0x1 PUSH1 0x1 PUSH1 0xA0 SHL SUB SWAP3 SWAP1 SWAP3 AND SWAP2 SWAP1 SWAP2 OR SWAP1 SSTORE JUMP JUMPDEST PUSH1 0xD4 SLOAD PUSH1 0x1 PUSH1 0x1 PUSH1 0xA0 SHL SUB AND DUP2 JUMP JUMPDEST PUSH1 0x0 DUP3 DUP3 GT ISZERO PUSH2 0x1689 JUMPI PUSH1 0x40 MLOAD PUSH3 0x461BCD PUSH1 0xE5 SHL DUP2 MSTORE PUSH1 0x4 ADD PUSH2 0x99B SWAP1 PUSH2 0x290B JUMP JUMPDEST POP SWAP1 SUB SWAP1 JUMP JUMPDEST PUSH1 0x0 DUP3 PUSH2 0x169E JUMPI POP PUSH1 0x0 PUSH2 0x1505 JUMP JUMPDEST DUP3 DUP3 MUL DUP3 DUP5 DUP3 DUP2 PUSH2 0x16AB JUMPI INVALID JUMPDEST DIV EQ PUSH2 0x16C9 JUMPI PUSH1 0x40 MLOAD PUSH3 0x461BCD PUSH1 0xE5 SHL DUP2 MSTORE PUSH1 0x4 ADD PUSH2 0x99B SWAP1 PUSH2 0x2A37 JUMP JUMPDEST SWAP4 SWAP3 POP POP POP JUMP JUMPDEST PUSH1 0x0 DUP1 DUP3 GT PUSH2 0x16F1 JUMPI PUSH1 0x40 MLOAD PUSH3 0x461BCD PUSH1 0xE5 SHL DUP2 MSTORE PUSH1 0x4 ADD PUSH2 0x99B SWAP1 PUSH2 0x2988 JUMP JUMPDEST DUP2 DUP4 DUP2 PUSH2 0x16FA JUMPI INVALID JUMPDEST DIV SWAP4 SWAP3 POP POP POP JUMP JUMPDEST PUSH1 0x0 DUP3 DUP3 ADD DUP4 DUP2 LT ISZERO PUSH2 0x16C9 JUMPI PUSH1 0x40 MLOAD PUSH3 0x461BCD PUSH1 0xE5 SHL DUP2 MSTORE PUSH1 0x4 ADD PUSH2 0x99B SWAP1 PUSH2 0x28D4 JUMP JUMPDEST PUSH2 0x177D DUP4 PUSH4 0xA9059CBB PUSH1 0xE0 SHL DUP5 DUP5 PUSH1 0x40 MLOAD PUSH1 0x24 ADD PUSH2 0x1746 SWAP3 SWAP2 SWAP1 PUSH2 0x2770 JUMP JUMPDEST PUSH1 0x40 DUP1 MLOAD PUSH1 0x1F NOT DUP2 DUP5 SUB ADD DUP2 MSTORE SWAP2 SWAP1 MSTORE PUSH1 0x20 DUP2 ADD DUP1 MLOAD PUSH1 0x1 PUSH1 0x1 PUSH1 0xE0 SHL SUB AND PUSH1 0x1 PUSH1 0x1 PUSH1 0xE0 SHL SUB NOT SWAP1 SWAP4 AND SWAP3 SWAP1 SWAP3 OR SWAP1 SWAP2 MSTORE PUSH2 0x1E9B JUMP JUMPDEST POP POP POP JUMP JUMPDEST CALLER SWAP1 JUMP JUMPDEST PUSH2 0x178E PUSH2 0xC7A JUMP JUMPDEST PUSH2 0x17AA JUMPI PUSH1 0x40 MLOAD PUSH3 0x461BCD PUSH1 0xE5 SHL DUP2 MSTORE PUSH1 0x4 ADD PUSH2 0x99B SWAP1 PUSH2 0x2860 JUMP JUMPDEST PUSH1 0x65 DUP1 SLOAD PUSH1 0xFF NOT AND SWAP1 SSTORE PUSH32 0x5DB9EE0A495BF2E6FF9C91A7834C1BA4FDD244A5E8AA4E537BD38AEAE4B073AA PUSH2 0x17DD PUSH2 0x1782 JUMP JUMPDEST PUSH1 0x40 MLOAD PUSH2 0x17EA SWAP2 SWAP1 PUSH2 0x26FD JUMP JUMPDEST PUSH1 0x40 MLOAD DUP1 SWAP2 SUB SWAP1 LOG1 JUMP JUMPDEST DUP1 ISZERO DUP1 PUSH2 0x187C JUMPI POP PUSH1 0x40 MLOAD PUSH4 0x6EB1769F PUSH1 0xE1 SHL DUP2 MSTORE PUSH1 0x1 PUSH1 0x1 PUSH1 0xA0 SHL SUB DUP5 AND SWAP1 PUSH4 0xDD62ED3E SWAP1 PUSH2 0x182A SWAP1 ADDRESS SWAP1 DUP7 SWAP1 PUSH1 0x4 ADD PUSH2 0x2732 JUMP JUMPDEST PUSH1 0x20 PUSH1 0x40 MLOAD DUP1 DUP4 SUB DUP2 DUP7 DUP1 EXTCODESIZE ISZERO DUP1 ISZERO PUSH2 0x1842 JUMPI PUSH1 0x0 DUP1 REVERT JUMPDEST POP GAS STATICCALL ISZERO DUP1 ISZERO PUSH2 0x1856 JUMPI RETURNDATASIZE PUSH1 0x0 DUP1 RETURNDATACOPY RETURNDATASIZE PUSH1 0x0 REVERT JUMPDEST POP POP POP POP PUSH1 0x40 MLOAD RETURNDATASIZE PUSH1 0x1F NOT PUSH1 0x1F DUP3 ADD AND DUP3 ADD DUP1 PUSH1 0x40 MSTORE POP DUP2 ADD SWAP1 PUSH2 0x187A SWAP2 SWAP1 PUSH2 0x25B9 JUMP JUMPDEST ISZERO JUMPDEST PUSH2 0x1898 JUMPI PUSH1 0x40 MLOAD PUSH3 0x461BCD PUSH1 0xE5 SHL DUP2 MSTORE PUSH1 0x4 ADD PUSH2 0x99B SWAP1 PUSH2 0x2B95 JUMP JUMPDEST PUSH2 0x177D DUP4 PUSH4 0x95EA7B3 PUSH1 0xE0 SHL DUP5 DUP5 PUSH1 0x40 MLOAD PUSH1 0x24 ADD PUSH2 0x1746 SWAP3 SWAP2 SWAP1 PUSH2 0x2770 JUMP JUMPDEST PUSH2 0x18BF PUSH2 0xC7A JUMP JUMPDEST ISZERO PUSH2 0x18DC JUMPI PUSH1 0x40 MLOAD PUSH3 0x461BCD PUSH1 0xE5 SHL DUP2 MSTORE PUSH1 0x4 ADD PUSH2 0x99B SWAP1 PUSH2 0x29BF JUMP JUMPDEST PUSH1 0x65 DUP1 SLOAD PUSH1 0xFF NOT AND PUSH1 0x1 OR SWAP1 SSTORE PUSH32 0x62E78CEA01BEE320CD4E420270B5EA74000D11B0C9F74754EBDBFC544B05A258 PUSH2 0x17DD PUSH2 0x1782 JUMP JUMPDEST PUSH1 0x0 PUSH2 0x191D ADDRESS PUSH2 0x1F2A JUMP JUMPDEST ISZERO SWAP1 POP SWAP1 JUMP JUMPDEST PUSH1 0x0 SLOAD PUSH2 0x100 SWAP1 DIV PUSH1 0xFF AND DUP1 PUSH2 0x193C JUMPI POP PUSH2 0x193C PUSH2 0x1912 JUMP JUMPDEST DUP1 PUSH2 0x194A JUMPI POP PUSH1 0x0 SLOAD PUSH1 0xFF AND ISZERO JUMPDEST PUSH2 0x1966 JUMPI PUSH1 0x40 MLOAD PUSH3 0x461BCD PUSH1 0xE5 SHL DUP2 MSTORE PUSH1 0x4 ADD PUSH2 0x99B SWAP1 PUSH2 0x29E9 JUMP JUMPDEST PUSH1 0x0 SLOAD PUSH2 0x100 SWAP1 DIV PUSH1 0xFF AND ISZERO DUP1 ISZERO PUSH2 0x1991 JUMPI PUSH1 0x0 DUP1 SLOAD PUSH1 0xFF NOT PUSH2 0xFF00 NOT SWAP1 SWAP2 AND PUSH2 0x100 OR AND PUSH1 0x1 OR SWAP1 SSTORE JUMPDEST PUSH2 0x1999 PUSH2 0x1F30 JUMP JUMPDEST PUSH2 0x19A1 PUSH2 0x1FB1 JUMP JUMPDEST DUP1 ISZERO PUSH2 0x19B3 JUMPI PUSH1 0x0 DUP1 SLOAD PUSH2 0xFF00 NOT AND SWAP1 SSTORE JUMPDEST POP JUMP JUMPDEST PUSH1 0x0 SLOAD PUSH2 0x100 SWAP1 DIV PUSH1 0xFF AND DUP1 PUSH2 0x19CF JUMPI POP PUSH2 0x19CF PUSH2 0x1912 JUMP JUMPDEST DUP1 PUSH2 0x19DD JUMPI POP PUSH1 0x0 SLOAD PUSH1 0xFF AND ISZERO JUMPDEST PUSH2 0x19F9 JUMPI PUSH1 0x40 MLOAD PUSH3 0x461BCD PUSH1 0xE5 SHL DUP2 MSTORE PUSH1 0x4 ADD PUSH2 0x99B SWAP1 PUSH2 0x29E9 JUMP JUMPDEST PUSH1 0x0 SLOAD PUSH2 0x100 SWAP1 DIV PUSH1 0xFF AND ISZERO DUP1 ISZERO PUSH2 0x1A24 JUMPI PUSH1 0x0 DUP1 SLOAD PUSH1 0xFF NOT PUSH2 0xFF00 NOT SWAP1 SWAP2 AND PUSH2 0x100 OR AND PUSH1 0x1 OR SWAP1 SSTORE JUMPDEST PUSH2 0x1A2C PUSH2 0x1F30 JUMP JUMPDEST PUSH2 0x19A1 PUSH2 0x208B JUMP JUMPDEST PUSH1 0xCC SLOAD PUSH1 0xD3 SLOAD PUSH1 0x40 MLOAD PUSH4 0x93F1A40B PUSH1 0xE0 SHL DUP2 MSTORE PUSH1 0x0 SWAP3 DUP4 SWAP3 PUSH1 0x1 PUSH1 0x1 PUSH1 0xA0 SHL SUB SWAP1 SWAP2 AND SWAP2 PUSH4 0x93F1A40B SWAP2 PUSH2 0x1A6C SWAP2 ADDRESS SWAP1 PUSH1 0x4 ADD PUSH2 0x2C1D JUMP JUMPDEST PUSH1 0x80 PUSH1 0x40 MLOAD DUP1 DUP4 SUB DUP2 DUP7 DUP1 EXTCODESIZE ISZERO DUP1 ISZERO PUSH2 0x1A84 JUMPI PUSH1 0x0 DUP1 REVERT JUMPDEST POP GAS STATICCALL ISZERO DUP1 ISZERO PUSH2 0x1A98 JUMPI RETURNDATASIZE PUSH1 0x0 DUP1 RETURNDATACOPY RETURNDATASIZE PUSH1 0x0 REVERT JUMPDEST POP POP POP POP PUSH1 0x40 MLOAD RETURNDATASIZE PUSH1 0x1F NOT PUSH1 0x1F DUP3 ADD AND DUP3 ADD DUP1 PUSH1 0x40 MSTORE POP DUP2 ADD SWAP1 PUSH2 0x1ABC SWAP2 SWAP1 PUSH2 0x2697 JUMP JUMPDEST POP SWAP2 SWAP4 POP POP POP POP SWAP1 JUMP JUMPDEST PUSH2 0x1AE7 DUP5 PUSH4 0x23B872DD PUSH1 0xE0 SHL DUP6 DUP6 DUP6 PUSH1 0x40 MLOAD PUSH1 0x24 ADD PUSH2 0x1746 SWAP4 SWAP3 SWAP2 SWAP1 PUSH2 0x274C JUMP JUMPDEST POP POP POP POP JUMP JUMPDEST NUMBER PUSH1 0xD1 SLOAD EQ ISZERO PUSH2 0x1AFC JUMPI PUSH2 0x19B3 JUMP JUMPDEST PUSH2 0x1B04 PUSH2 0x1A34 JUMP JUMPDEST PUSH2 0x1B0D JUMPI PUSH2 0x19B3 JUMP JUMPDEST PUSH1 0xCC SLOAD PUSH1 0xD3 SLOAD PUSH1 0x40 MLOAD PUSH4 0x6EE31931 PUSH1 0xE1 SHL DUP2 MSTORE PUSH1 0x1 PUSH1 0x1 PUSH1 0xA0 SHL SUB SWAP1 SWAP3 AND SWAP2 PUSH4 0xDDC63262 SWAP2 PUSH2 0x1B3E SWAP2 PUSH1 0x4 ADD PUSH2 0x2C14 JUMP JUMPDEST PUSH1 0x0 PUSH1 0x40 MLOAD DUP1 DUP4 SUB DUP2 PUSH1 0x0 DUP8 DUP1 EXTCODESIZE ISZERO DUP1 ISZERO PUSH2 0x1B58 JUMPI PUSH1 0x0 DUP1 REVERT JUMPDEST POP GAS CALL ISZERO DUP1 ISZERO PUSH2 0x1B6C JUMPI RETURNDATASIZE PUSH1 0x0 DUP1 RETURNDATACOPY RETURNDATASIZE PUSH1 0x0 REVERT JUMPDEST POP POP PUSH1 0xCD SLOAD PUSH1 0x40 MLOAD PUSH4 0x70A08231 PUSH1 0xE0 SHL DUP2 MSTORE PUSH1 0x0 SWAP4 POP PUSH1 0x1 PUSH1 0x1 PUSH1 0xA0 SHL SUB SWAP1 SWAP2 AND SWAP2 POP PUSH4 0x70A08231 SWAP1 PUSH2 0x1BA3 SWAP1 ADDRESS SWAP1 PUSH1 0x4 ADD PUSH2 0x26FD JUMP JUMPDEST PUSH1 0x20 PUSH1 0x40 MLOAD DUP1 DUP4 SUB DUP2 DUP7 DUP1 EXTCODESIZE ISZERO DUP1 ISZERO PUSH2 0x1BBB JUMPI PUSH1 0x0 DUP1 REVERT JUMPDEST POP GAS STATICCALL ISZERO DUP1 ISZERO PUSH2 0x1BCF JUMPI RETURNDATASIZE PUSH1 0x0 DUP1 RETURNDATACOPY RETURNDATASIZE PUSH1 0x0 REVERT JUMPDEST POP POP POP POP PUSH1 0x40 MLOAD RETURNDATASIZE PUSH1 0x1F NOT PUSH1 0x1F DUP3 ADD AND DUP3 ADD DUP1 PUSH1 0x40 MSTORE POP DUP2 ADD SWAP1 PUSH2 0x1BF3 SWAP2 SWAP1 PUSH2 0x25B9 JUMP JUMPDEST SWAP1 POP DUP1 PUSH2 0x1C00 JUMPI POP PUSH2 0x19B3 JUMP JUMPDEST PUSH1 0xC9 SLOAD PUSH1 0xCD SLOAD PUSH1 0x1 PUSH1 0x1 PUSH1 0xA0 SHL SUB SWAP1 DUP2 AND PUSH2 0x100 SWAP1 SWAP3 DIV AND EQ PUSH2 0x1CCC JUMPI PUSH1 0xCA SLOAD PUSH1 0x1 PUSH1 0x1 PUSH1 0xA0 SHL SUB AND PUSH4 0x38ED1739 DUP3 PUSH2 0x1C45 PUSH8 0xDE0B6B3A7640000 PUSH2 0x763 DUP4 DUP9 PUSH2 0x168F JUMP JUMPDEST PUSH1 0xD2 ADDRESS PUSH2 0x1C54 TIMESTAMP PUSH2 0x258 PUSH2 0x1702 JUMP JUMPDEST PUSH1 0x40 MLOAD DUP7 PUSH4 0xFFFFFFFF AND PUSH1 0xE0 SHL DUP2 MSTORE PUSH1 0x4 ADD PUSH2 0x1C74 SWAP6 SWAP5 SWAP4 SWAP3 SWAP2 SWAP1 PUSH2 0x2C42 JUMP JUMPDEST PUSH1 0x0 PUSH1 0x40 MLOAD DUP1 DUP4 SUB DUP2 PUSH1 0x0 DUP8 DUP1 EXTCODESIZE ISZERO DUP1 ISZERO PUSH2 0x1C8E JUMPI PUSH1 0x0 DUP1 REVERT JUMPDEST POP GAS CALL ISZERO DUP1 ISZERO PUSH2 0x1CA2 JUMPI RETURNDATASIZE PUSH1 0x0 DUP1 RETURNDATACOPY RETURNDATASIZE PUSH1 0x0 REVERT JUMPDEST POP POP POP POP PUSH1 0x40 MLOAD RETURNDATASIZE PUSH1 0x0 DUP3 RETURNDATACOPY PUSH1 0x1F RETURNDATASIZE SWAP1 DUP2 ADD PUSH1 0x1F NOT AND DUP3 ADD PUSH1 0x40 MSTORE PUSH2 0x1CCA SWAP2 SWAP1 DUP2 ADD SWAP1 PUSH2 0x2422 JUMP JUMPDEST POP JUMPDEST PUSH1 0xD0 SLOAD PUSH1 0xCE SLOAD PUSH1 0xC9 SLOAD PUSH1 0x40 MLOAD PUSH4 0x70A08231 PUSH1 0xE0 SHL DUP2 MSTORE PUSH1 0x1 PUSH1 0x1 PUSH1 0xA0 SHL SUB SWAP4 DUP5 AND SWAP4 PUSH4 0x47E7EF24 SWAP4 DUP2 AND SWAP3 PUSH2 0x100 SWAP1 DIV AND SWAP1 PUSH4 0x70A08231 SWAP1 PUSH2 0x1D12 SWAP1 ADDRESS SWAP1 PUSH1 0x4 ADD PUSH2 0x26FD JUMP JUMPDEST PUSH1 0x20 PUSH1 0x40 MLOAD DUP1 DUP4 SUB DUP2 DUP7 DUP1 EXTCODESIZE ISZERO DUP1 ISZERO PUSH2 0x1D2A JUMPI PUSH1 0x0 DUP1 REVERT JUMPDEST POP GAS STATICCALL ISZERO DUP1 ISZERO PUSH2 0x1D3E JUMPI RETURNDATASIZE PUSH1 0x0 DUP1 RETURNDATACOPY RETURNDATASIZE PUSH1 0x0 REVERT JUMPDEST POP POP POP POP PUSH1 0x40 MLOAD RETURNDATASIZE PUSH1 0x1F NOT PUSH1 0x1F DUP3 ADD AND DUP3 ADD DUP1 PUSH1 0x40 MSTORE POP DUP2 ADD SWAP1 PUSH2 0x1D62 SWAP2 SWAP1 PUSH2 0x25B9 JUMP JUMPDEST PUSH1 0x40 MLOAD DUP4 PUSH4 0xFFFFFFFF AND PUSH1 0xE0 SHL DUP2 MSTORE PUSH1 0x4 ADD PUSH2 0x1D7F SWAP3 SWAP2 SWAP1 PUSH2 0x2770 JUMP JUMPDEST PUSH1 0x0 PUSH1 0x40 MLOAD DUP1 DUP4 SUB DUP2 PUSH1 0x0 DUP8 DUP1 EXTCODESIZE ISZERO DUP1 ISZERO PUSH2 0x1D99 JUMPI PUSH1 0x0 DUP1 REVERT JUMPDEST POP GAS CALL ISZERO DUP1 ISZERO PUSH2 0x1DAD JUMPI RETURNDATASIZE PUSH1 0x0 DUP1 RETURNDATACOPY RETURNDATASIZE PUSH1 0x0 REVERT JUMPDEST POP POP PUSH1 0xCC SLOAD PUSH1 0xD3 SLOAD PUSH1 0xCF SLOAD PUSH1 0x40 MLOAD PUSH4 0x70A08231 PUSH1 0xE0 SHL DUP2 MSTORE PUSH1 0x1 PUSH1 0x1 PUSH1 0xA0 SHL SUB SWAP4 DUP5 AND SWAP6 POP PUSH4 0xEFE6A8B SWAP5 POP ADDRESS SWAP4 SWAP1 SWAP2 AND SWAP1 PUSH4 0x70A08231 SWAP1 PUSH2 0x1DF3 SWAP1 DUP6 SWAP1 PUSH1 0x4 ADD PUSH2 0x26FD JUMP JUMPDEST PUSH1 0x20 PUSH1 0x40 MLOAD DUP1 DUP4 SUB DUP2 DUP7 DUP1 EXTCODESIZE ISZERO DUP1 ISZERO PUSH2 0x1E0B JUMPI PUSH1 0x0 DUP1 REVERT JUMPDEST POP GAS STATICCALL ISZERO DUP1 ISZERO PUSH2 0x1E1F JUMPI RETURNDATASIZE PUSH1 0x0 DUP1 RETURNDATACOPY RETURNDATASIZE PUSH1 0x0 REVERT JUMPDEST POP POP POP POP PUSH1 0x40 MLOAD RETURNDATASIZE PUSH1 0x1F NOT PUSH1 0x1F DUP3 ADD AND DUP3 ADD DUP1 PUSH1 0x40 MSTORE POP DUP2 ADD SWAP1 PUSH2 0x1E43 SWAP2 SWAP1 PUSH2 0x25B9 JUMP JUMPDEST PUSH1 0x40 MLOAD DUP5 PUSH4 0xFFFFFFFF AND PUSH1 0xE0 SHL DUP2 MSTORE PUSH1 0x4 ADD PUSH2 0x1E61 SWAP4 SWAP3 SWAP2 SWAP1 PUSH2 0x2711 JUMP JUMPDEST PUSH1 0x0 PUSH1 0x40 MLOAD DUP1 DUP4 SUB DUP2 PUSH1 0x0 DUP8 DUP1 EXTCODESIZE ISZERO DUP1 ISZERO PUSH2 0x1E7B JUMPI PUSH1 0x0 DUP1 REVERT JUMPDEST POP GAS CALL ISZERO DUP1 ISZERO PUSH2 0x1E8F JUMPI RETURNDATASIZE PUSH1 0x0 DUP1 RETURNDATACOPY RETURNDATASIZE PUSH1 0x0 REVERT JUMPDEST POP POP NUMBER PUSH1 0xD1 SSTORE POP POP POP POP JUMP JUMPDEST PUSH1 0x60 PUSH2 0x1EF0 DUP3 PUSH1 0x40 MLOAD DUP1 PUSH1 0x40 ADD PUSH1 0x40 MSTORE DUP1 PUSH1 0x20 DUP2 MSTORE PUSH1 0x20 ADD PUSH32 0x5361666545524332303A206C6F772D6C6576656C2063616C6C206661696C6564 DUP2 MSTORE POP DUP6 PUSH1 0x1 PUSH1 0x1 PUSH1 0xA0 SHL SUB AND PUSH2 0x2117 SWAP1 SWAP3 SWAP2 SWAP1 PUSH4 0xFFFFFFFF AND JUMP JUMPDEST DUP1 MLOAD SWAP1 SWAP2 POP ISZERO PUSH2 0x177D JUMPI DUP1 DUP1 PUSH1 0x20 ADD SWAP1 MLOAD DUP2 ADD SWAP1 PUSH2 0x1F0E SWAP2 SWAP1 PUSH2 0x24D3 JUMP JUMPDEST PUSH2 0x177D JUMPI PUSH1 0x40 MLOAD PUSH3 0x461BCD PUSH1 0xE5 SHL DUP2 MSTORE PUSH1 0x4 ADD PUSH2 0x99B SWAP1 PUSH2 0x2B14 JUMP JUMPDEST EXTCODESIZE ISZERO ISZERO SWAP1 JUMP JUMPDEST PUSH1 0x0 SLOAD PUSH2 0x100 SWAP1 DIV PUSH1 0xFF AND DUP1 PUSH2 0x1F49 JUMPI POP PUSH2 0x1F49 PUSH2 0x1912 JUMP JUMPDEST DUP1 PUSH2 0x1F57 JUMPI POP PUSH1 0x0 SLOAD PUSH1 0xFF AND ISZERO JUMPDEST PUSH2 0x1F73 JUMPI PUSH1 0x40 MLOAD PUSH3 0x461BCD PUSH1 0xE5 SHL DUP2 MSTORE PUSH1 0x4 ADD PUSH2 0x99B SWAP1 PUSH2 0x29E9 JUMP JUMPDEST PUSH1 0x0 SLOAD PUSH2 0x100 SWAP1 DIV PUSH1 0xFF AND ISZERO DUP1 ISZERO PUSH2 0x19A1 JUMPI PUSH1 0x0 DUP1 SLOAD PUSH1 0xFF NOT PUSH2 0xFF00 NOT SWAP1 SWAP2 AND PUSH2 0x100 OR AND PUSH1 0x1 OR SWAP1 SSTORE DUP1 ISZERO PUSH2 0x19B3 JUMPI PUSH1 0x0 DUP1 SLOAD PUSH2 0xFF00 NOT AND SWAP1 SSTORE POP JUMP JUMPDEST PUSH1 0x0 SLOAD PUSH2 0x100 SWAP1 DIV PUSH1 0xFF AND DUP1 PUSH2 0x1FCA JUMPI POP PUSH2 0x1FCA PUSH2 0x1912 JUMP JUMPDEST DUP1 PUSH2 0x1FD8 JUMPI POP PUSH1 0x0 SLOAD PUSH1 0xFF AND ISZERO JUMPDEST PUSH2 0x1FF4 JUMPI PUSH1 0x40 MLOAD PUSH3 0x461BCD PUSH1 0xE5 SHL DUP2 MSTORE PUSH1 0x4 ADD PUSH2 0x99B SWAP1 PUSH2 0x29E9 JUMP JUMPDEST PUSH1 0x0 SLOAD PUSH2 0x100 SWAP1 DIV PUSH1 0xFF AND ISZERO DUP1 ISZERO PUSH2 0x201F JUMPI PUSH1 0x0 DUP1 SLOAD PUSH1 0xFF NOT PUSH2 0xFF00 NOT SWAP1 SWAP2 AND PUSH2 0x100 OR AND PUSH1 0x1 OR SWAP1 SSTORE JUMPDEST PUSH1 0x0 PUSH2 0x2029 PUSH2 0x1782 JUMP JUMPDEST PUSH1 0x33 DUP1 SLOAD PUSH1 0x1 PUSH1 0x1 PUSH1 0xA0 SHL SUB NOT AND PUSH1 0x1 PUSH1 0x1 PUSH1 0xA0 SHL SUB DUP4 AND SWAP1 DUP2 OR SWAP1 SWAP2 SSTORE PUSH1 0x40 MLOAD SWAP2 SWAP3 POP SWAP1 PUSH1 0x0 SWAP1 PUSH32 0x8BE0079C531659141344CD1FD0A4F28419497F9722A3DAAFE3B4186F6B6457E0 SWAP1 DUP3 SWAP1 LOG3 POP DUP1 ISZERO PUSH2 0x19B3 JUMPI PUSH1 0x0 DUP1 SLOAD PUSH2 0xFF00 NOT AND SWAP1 SSTORE POP JUMP JUMPDEST PUSH1 0x0 SLOAD PUSH2 0x100 SWAP1 DIV PUSH1 0xFF AND DUP1 PUSH2 0x20A4 JUMPI POP PUSH2 0x20A4 PUSH2 0x1912 JUMP JUMPDEST DUP1 PUSH2 0x20B2 JUMPI POP PUSH1 0x0 SLOAD PUSH1 0xFF AND ISZERO JUMPDEST PUSH2 0x20CE JUMPI PUSH1 0x40 MLOAD PUSH3 0x461BCD PUSH1 0xE5 SHL DUP2 MSTORE PUSH1 0x4 ADD PUSH2 0x99B SWAP1 PUSH2 0x29E9 JUMP JUMPDEST PUSH1 0x0 SLOAD PUSH2 0x100 SWAP1 DIV PUSH1 0xFF AND ISZERO DUP1 ISZERO PUSH2 0x20F9 JUMPI PUSH1 0x0 DUP1 SLOAD PUSH1 0xFF NOT PUSH2 0xFF00 NOT SWAP1 SWAP2 AND PUSH2 0x100 OR AND PUSH1 0x1 OR SWAP1 SSTORE JUMPDEST PUSH1 0x65 DUP1 SLOAD PUSH1 0xFF NOT AND SWAP1 SSTORE DUP1 ISZERO PUSH2 0x19B3 JUMPI PUSH1 0x0 DUP1 SLOAD PUSH2 0xFF00 NOT AND SWAP1 SSTORE POP JUMP JUMPDEST PUSH1 0x60 PUSH2 0x2126 DUP5 DUP5 PUSH1 0x0 DUP6 PUSH2 0x212E JUMP JUMPDEST SWAP5 SWAP4 POP POP POP POP JUMP JUMPDEST PUSH1 0x60 DUP3 SELFBALANCE LT ISZERO PUSH2 0x2150 JUMPI PUSH1 0x40 MLOAD PUSH3 0x461BCD PUSH1 0xE5 SHL DUP2 MSTORE PUSH1 0x4 ADD PUSH2 0x99B SWAP1 PUSH2 0x2942 JUMP JUMPDEST PUSH2 0x2159 DUP6 PUSH2 0x1F2A JUMP JUMPDEST PUSH2 0x2175 JUMPI PUSH1 0x40 MLOAD PUSH3 0x461BCD PUSH1 0xE5 SHL DUP2 MSTORE PUSH1 0x4 ADD PUSH2 0x99B SWAP1 PUSH2 0x2AAD JUMP JUMPDEST PUSH1 0x0 PUSH1 0x60 DUP7 PUSH1 0x1 PUSH1 0x1 PUSH1 0xA0 SHL SUB AND DUP6 DUP8 PUSH1 0x40 MLOAD PUSH2 0x2192 SWAP2 SWAP1 PUSH2 0x26E1 JUMP JUMPDEST PUSH1 0x0 PUSH1 0x40 MLOAD DUP1 DUP4 SUB DUP2 DUP6 DUP8 GAS CALL SWAP3 POP POP POP RETURNDATASIZE DUP1 PUSH1 0x0 DUP2 EQ PUSH2 0x21CF JUMPI PUSH1 0x40 MLOAD SWAP2 POP PUSH1 0x1F NOT PUSH1 0x3F RETURNDATASIZE ADD AND DUP3 ADD PUSH1 0x40 MSTORE RETURNDATASIZE DUP3 MSTORE RETURNDATASIZE PUSH1 0x0 PUSH1 0x20 DUP5 ADD RETURNDATACOPY PUSH2 0x21D4 JUMP JUMPDEST PUSH1 0x60 SWAP2 POP JUMPDEST POP SWAP2 POP SWAP2 POP PUSH2 0x21E4 DUP3 DUP3 DUP7 PUSH2 0x21EF JUMP JUMPDEST SWAP8 SWAP7 POP POP POP POP POP POP POP JUMP JUMPDEST PUSH1 0x60 DUP4 ISZERO PUSH2 0x21FE JUMPI POP DUP2 PUSH2 0x16C9 JUMP JUMPDEST DUP3 MLOAD ISZERO PUSH2 0x220E JUMPI DUP3 MLOAD DUP1 DUP5 PUSH1 0x20 ADD REVERT JUMPDEST DUP2 PUSH1 0x40 MLOAD PUSH3 0x461BCD PUSH1 0xE5 SHL DUP2 MSTORE PUSH1 0x4 ADD PUSH2 0x99B SWAP2 SWAP1 PUSH2 0x282D JUMP JUMPDEST PUSH1 0x40 MLOAD DUP1 PUSH2 0x140 ADD PUSH1 0x40 MSTORE DUP1 PUSH1 0x0 PUSH1 0x1 PUSH1 0x1 PUSH1 0xA0 SHL SUB AND DUP2 MSTORE PUSH1 0x20 ADD PUSH1 0x0 PUSH1 0x1 PUSH1 0x1 PUSH1 0xA0 SHL SUB AND DUP2 MSTORE PUSH1 0x20 ADD PUSH1 0x0 ISZERO ISZERO DUP2 MSTORE PUSH1 0x20 ADD PUSH1 0x0 ISZERO ISZERO DUP2 MSTORE PUSH1 0x20 ADD PUSH1 0x0 ISZERO ISZERO DUP2 MSTORE PUSH1 0x20 ADD PUSH1 0x0 DUP2 MSTORE PUSH1 0x20 ADD PUSH1 0x0 DUP2 MSTORE PUSH1 0x20 ADD PUSH1 0x0 DUP2 MSTORE PUSH1 0x20 ADD PUSH1 0x0 DUP2 MSTORE PUSH1 0x20 ADD PUSH1 0x0 DUP2 MSTORE POP SWAP1 JUMP JUMPDEST DUP3 DUP1 SLOAD DUP3 DUP3 SSTORE SWAP1 PUSH1 0x0 MSTORE PUSH1 0x20 PUSH1 0x0 KECCAK256 SWAP1 DUP2 ADD SWAP3 DUP3 ISZERO PUSH2 0x22E8 JUMPI SWAP2 PUSH1 0x20 MUL DUP3 ADD JUMPDEST DUP3 DUP2 GT ISZERO PUSH2 0x22E8 JUMPI DUP3 MLOAD DUP3 SLOAD PUSH1 0x1 PUSH1 0x1 PUSH1 0xA0 SHL SUB NOT AND PUSH1 0x1 PUSH1 0x1 PUSH1 0xA0 SHL SUB SWAP1 SWAP2 AND OR DUP3 SSTORE PUSH1 0x20 SWAP1 SWAP3 ADD SWAP2 PUSH1 0x1 SWAP1 SWAP2 ADD SWAP1 PUSH2 0x22B3 JUMP JUMPDEST POP PUSH2 0x22F4 SWAP3 SWAP2 POP PUSH2 0x22F8 JUMP JUMPDEST POP SWAP1 JUMP JUMPDEST JUMPDEST DUP1 DUP3 GT ISZERO PUSH2 0x22F4 JUMPI DUP1 SLOAD PUSH1 0x1 PUSH1 0x1 PUSH1 0xA0 SHL SUB NOT AND DUP2 SSTORE PUSH1 0x1 ADD PUSH2 0x22F9 JUMP JUMPDEST DUP1 MLOAD PUSH2 0x1505 DUP2 PUSH2 0x2D28 JUMP JUMPDEST PUSH1 0x0 DUP1 DUP4 PUSH1 0x1F DUP5 ADD SLT PUSH2 0x2333 JUMPI DUP2 DUP3 REVERT JUMPDEST POP DUP2 CALLDATALOAD PUSH8 0xFFFFFFFFFFFFFFFF DUP2 GT ISZERO PUSH2 0x234A JUMPI DUP2 DUP3 REVERT JUMPDEST PUSH1 0x20 DUP4 ADD SWAP2 POP DUP4 PUSH1 0x20 DUP1 DUP4 MUL DUP6 ADD ADD GT ISZERO PUSH2 0x2364 JUMPI PUSH1 0x0 DUP1 REVERT JUMPDEST SWAP3 POP SWAP3 SWAP1 POP JUMP JUMPDEST DUP1 CALLDATALOAD PUSH2 0x1505 DUP2 PUSH2 0x2D3D JUMP JUMPDEST DUP1 MLOAD PUSH2 0x1505 DUP2 PUSH2 0x2D3D JUMP JUMPDEST PUSH1 0x0 PUSH1 0x20 DUP3 DUP5 SUB SLT ISZERO PUSH2 0x2392 JUMPI DUP1 DUP2 REVERT JUMPDEST DUP2 CALLDATALOAD PUSH2 0x16C9 DUP2 PUSH2 0x2D28 JUMP JUMPDEST PUSH1 0x0 PUSH1 0x20 DUP3 DUP5 SUB SLT ISZERO PUSH2 0x23AE JUMPI DUP1 DUP2 REVERT JUMPDEST DUP2 MLOAD PUSH2 0x16C9 DUP2 PUSH2 0x2D28 JUMP JUMPDEST PUSH1 0x0 DUP1 PUSH1 0x0 DUP1 PUSH1 0x40 DUP6 DUP8 SUB SLT ISZERO PUSH2 0x23CE JUMPI DUP3 DUP4 REVERT JUMPDEST DUP5 CALLDATALOAD PUSH8 0xFFFFFFFFFFFFFFFF DUP1 DUP3 GT ISZERO PUSH2 0x23E5 JUMPI DUP5 DUP6 REVERT JUMPDEST PUSH2 0x23F1 DUP9 DUP4 DUP10 ADD PUSH2 0x2322 JUMP JUMPDEST SWAP1 SWAP7 POP SWAP5 POP PUSH1 0x20 DUP8 ADD CALLDATALOAD SWAP2 POP DUP1 DUP3 GT ISZERO PUSH2 0x2409 JUMPI DUP4 DUP5 REVERT JUMPDEST POP PUSH2 0x2416 DUP8 DUP3 DUP9 ADD PUSH2 0x2322 JUMP JUMPDEST SWAP6 SWAP9 SWAP5 SWAP8 POP SWAP6 POP POP POP POP JUMP JUMPDEST PUSH1 0x0 PUSH1 0x20 DUP1 DUP4 DUP6 SUB SLT ISZERO PUSH2 0x2434 JUMPI DUP2 DUP3 REVERT JUMPDEST DUP3 MLOAD PUSH8 0xFFFFFFFFFFFFFFFF DUP2 GT ISZERO PUSH2 0x244A JUMPI DUP3 DUP4 REVERT JUMPDEST DUP4 ADD PUSH1 0x1F DUP2 ADD DUP6 SGT PUSH2 0x245A JUMPI DUP3 DUP4 REVERT JUMPDEST DUP1 MLOAD PUSH2 0x246D PUSH2 0x2468 DUP3 PUSH2 0x2CDC JUMP JUMPDEST PUSH2 0x2CB5 JUMP JUMPDEST DUP2 DUP2 MSTORE DUP4 DUP2 ADD SWAP1 DUP4 DUP6 ADD DUP6 DUP5 MUL DUP6 ADD DUP7 ADD DUP10 LT ISZERO PUSH2 0x2489 JUMPI DUP7 DUP8 REVERT JUMPDEST DUP7 SWAP5 POP JUMPDEST DUP4 DUP6 LT ISZERO PUSH2 0x24AB JUMPI DUP1 MLOAD DUP4 MSTORE PUSH1 0x1 SWAP5 SWAP1 SWAP5 ADD SWAP4 SWAP2 DUP6 ADD SWAP2 DUP6 ADD PUSH2 0x248D JUMP JUMPDEST POP SWAP8 SWAP7 POP POP POP POP POP POP POP JUMP JUMPDEST PUSH1 0x0 PUSH1 0x20 DUP3 DUP5 SUB SLT ISZERO PUSH2 0x24C8 JUMPI DUP1 DUP2 REVERT JUMPDEST DUP2 CALLDATALOAD PUSH2 0x16C9 DUP2 PUSH2 0x2D3D JUMP JUMPDEST PUSH1 0x0 PUSH1 0x20 DUP3 DUP5 SUB SLT ISZERO PUSH2 0x24E4 JUMPI DUP1 DUP2 REVERT JUMPDEST DUP2 MLOAD PUSH2 0x16C9 DUP2 PUSH2 0x2D3D JUMP JUMPDEST PUSH1 0x0 PUSH2 0x140 DUP1 DUP4 DUP6 SUB SLT ISZERO PUSH2 0x2502 JUMPI DUP2 DUP3 REVERT JUMPDEST PUSH2 0x250B DUP2 PUSH2 0x2CB5 JUMP JUMPDEST SWAP1 POP PUSH2 0x2517 DUP5 DUP5 PUSH2 0x2317 JUMP JUMPDEST DUP2 MSTORE PUSH2 0x2526 DUP5 PUSH1 0x20 DUP6 ADD PUSH2 0x2317 JUMP JUMPDEST PUSH1 0x20 DUP3 ADD MSTORE PUSH2 0x2538 DUP5 PUSH1 0x40 DUP6 ADD PUSH2 0x2376 JUMP JUMPDEST PUSH1 0x40 DUP3 ADD MSTORE PUSH2 0x254A DUP5 PUSH1 0x60 DUP6 ADD PUSH2 0x2376 JUMP JUMPDEST PUSH1 0x60 DUP3 ADD MSTORE PUSH2 0x255C DUP5 PUSH1 0x80 DUP6 ADD PUSH2 0x2376 JUMP JUMPDEST PUSH1 0x80 DUP3 ADD MSTORE PUSH1 0xA0 DUP4 ADD MLOAD PUSH1 0xA0 DUP3 ADD MSTORE PUSH1 0xC0 DUP4 ADD MLOAD PUSH1 0xC0 DUP3 ADD MSTORE PUSH1 0xE0 DUP4 ADD MLOAD PUSH1 0xE0 DUP3 ADD MSTORE PUSH2 0x100 DUP1 DUP5 ADD MLOAD DUP2 DUP4 ADD MSTORE POP PUSH2 0x120 DUP1 DUP5 ADD MLOAD DUP2 DUP4 ADD MSTORE POP DUP1 SWAP2 POP POP SWAP3 SWAP2 POP POP JUMP JUMPDEST PUSH1 0x0 PUSH1 0x20 DUP3 DUP5 SUB SLT ISZERO PUSH2 0x25B2 JUMPI DUP1 DUP2 REVERT JUMPDEST POP CALLDATALOAD SWAP2 SWAP1 POP JUMP JUMPDEST PUSH1 0x0 PUSH1 0x20 DUP3 DUP5 SUB SLT ISZERO PUSH2 0x25CA JUMPI DUP1 DUP2 REVERT JUMPDEST POP MLOAD SWAP2 SWAP1 POP JUMP JUMPDEST PUSH1 0x0 DUP1 PUSH1 0x0 DUP1 PUSH1 0x0 DUP1 PUSH1 0x0 DUP1 PUSH1 0x0 DUP1 PUSH2 0x140 DUP12 DUP14 SUB SLT ISZERO PUSH2 0x25F0 JUMPI DUP6 DUP7 REVERT JUMPDEST DUP11 CALLDATALOAD SWAP10 POP PUSH1 0x20 DUP12 ADD CALLDATALOAD PUSH2 0x2602 DUP2 PUSH2 0x2D28 JUMP JUMPDEST SWAP9 POP PUSH1 0x40 DUP12 ADD CALLDATALOAD PUSH2 0x2612 DUP2 PUSH2 0x2D28 JUMP JUMPDEST SWAP8 POP PUSH1 0x60 DUP12 ADD CALLDATALOAD PUSH2 0x2622 DUP2 PUSH2 0x2D28 JUMP JUMPDEST SWAP7 POP PUSH1 0x80 DUP12 ADD CALLDATALOAD PUSH2 0x2632 DUP2 PUSH2 0x2D28 JUMP JUMPDEST SWAP6 POP PUSH1 0xA0 DUP12 ADD CALLDATALOAD PUSH2 0x2642 DUP2 PUSH2 0x2D28 JUMP JUMPDEST SWAP5 POP PUSH1 0xC0 DUP12 ADD CALLDATALOAD PUSH2 0x2652 DUP2 PUSH2 0x2D28 JUMP JUMPDEST SWAP4 POP PUSH1 0xE0 DUP12 ADD CALLDATALOAD PUSH2 0x2662 DUP2 PUSH2 0x2D28 JUMP JUMPDEST SWAP3 POP PUSH2 0x100 DUP12 ADD CALLDATALOAD PUSH2 0x2673 DUP2 PUSH2 0x2D28 JUMP JUMPDEST SWAP2 POP PUSH2 0x120 DUP12 ADD CALLDATALOAD PUSH2 0x2684 DUP2 PUSH2 0x2D3D JUMP JUMPDEST DUP1 SWAP2 POP POP SWAP3 SWAP6 SWAP9 SWAP12 SWAP2 SWAP5 SWAP8 SWAP11 POP SWAP3 SWAP6 SWAP9 POP JUMP JUMPDEST PUSH1 0x0 DUP1 PUSH1 0x0 DUP1 PUSH1 0x80 DUP6 DUP8 SUB SLT ISZERO PUSH2 0x26AC JUMPI DUP4 DUP5 REVERT JUMPDEST DUP5 MLOAD SWAP4 POP PUSH1 0x20 DUP6 ADD MLOAD SWAP3 POP PUSH1 0x40 DUP6 ADD MLOAD SWAP2 POP PUSH1 0x60 DUP6 ADD MLOAD PUSH2 0x26CC DUP2 PUSH2 0x2D28 JUMP JUMPDEST SWAP4 SWAP7 SWAP3 SWAP6 POP SWAP1 SWAP4 POP POP JUMP JUMPDEST ISZERO ISZERO DUP2 MSTORE PUSH1 0x20 ADD SWAP1 JUMP JUMPDEST PUSH1 0x0 DUP3 MLOAD PUSH2 0x26F3 DUP2 DUP5 PUSH1 0x20 DUP8 ADD PUSH2 0x2CFC JUMP JUMPDEST SWAP2 SWAP1 SWAP2 ADD SWAP3 SWAP2 POP POP JUMP JUMPDEST PUSH1 0x1 PUSH1 0x1 PUSH1 0xA0 SHL SUB SWAP2 SWAP1 SWAP2 AND DUP2 MSTORE PUSH1 0x20 ADD SWAP1 JUMP JUMPDEST PUSH1 0x1 PUSH1 0x1 PUSH1 0xA0 SHL SUB SWAP4 SWAP1 SWAP4 AND DUP4 MSTORE PUSH1 0x20 DUP4 ADD SWAP2 SWAP1 SWAP2 MSTORE PUSH1 0x40 DUP3 ADD MSTORE PUSH1 0x60 ADD SWAP1 JUMP JUMPDEST PUSH1 0x1 PUSH1 0x1 PUSH1 0xA0 SHL SUB SWAP3 DUP4 AND DUP2 MSTORE SWAP2 AND PUSH1 0x20 DUP3 ADD MSTORE PUSH1 0x40 ADD SWAP1 JUMP JUMPDEST PUSH1 0x1 PUSH1 0x1 PUSH1 0xA0 SHL SUB SWAP4 DUP5 AND DUP2 MSTORE SWAP2 SWAP1 SWAP3 AND PUSH1 0x20 DUP3 ADD MSTORE PUSH1 0x40 DUP2 ADD SWAP2 SWAP1 SWAP2 MSTORE PUSH1 0x60 ADD SWAP1 JUMP JUMPDEST PUSH1 0x1 PUSH1 0x1 PUSH1 0xA0 SHL SUB SWAP3 SWAP1 SWAP3 AND DUP3 MSTORE PUSH1 0x20 DUP3 ADD MSTORE PUSH1 0x40 ADD SWAP1 JUMP JUMPDEST PUSH1 0x40 DUP1 DUP3 MSTORE DUP2 ADD DUP5 SWAP1 MSTORE PUSH1 0x0 DUP6 PUSH1 0x60 DUP4 ADD DUP3 JUMPDEST DUP8 DUP2 LT ISZERO PUSH2 0x27CC JUMPI PUSH1 0x20 DUP4 CALLDATALOAD PUSH2 0x27B1 DUP2 PUSH2 0x2D28 JUMP JUMPDEST PUSH1 0x1 PUSH1 0x1 PUSH1 0xA0 SHL SUB AND DUP4 MSTORE SWAP3 DUP4 ADD SWAP3 SWAP1 SWAP2 ADD SWAP1 PUSH1 0x1 ADD PUSH2 0x279C JUMP JUMPDEST POP PUSH1 0x20 SWAP2 POP DUP4 DUP2 SUB DUP3 DUP6 ADD MSTORE DUP1 PUSH2 0x27E3 DUP7 DUP4 PUSH2 0x2C14 JUMP JUMPDEST SWAP1 POP DUP7 SWAP2 POP DUP4 JUMPDEST DUP7 DUP2 LT ISZERO PUSH2 0x2815 JUMPI DUP4 DUP4 ADD PUSH2 0x2808 DUP4 PUSH2 0x2803 DUP4 DUP8 PUSH2 0x236B JUMP JUMPDEST PUSH2 0x26D7 JUMP JUMPDEST SWAP1 SWAP4 POP SWAP2 POP PUSH1 0x1 ADD PUSH2 0x27EA JUMP JUMPDEST POP SWAP9 SWAP8 POP POP POP POP POP POP POP POP JUMP JUMPDEST SWAP1 ISZERO ISZERO DUP2 MSTORE PUSH1 0x20 ADD SWAP1 JUMP JUMPDEST PUSH1 0x0 PUSH1 0x20 DUP3 MSTORE DUP3 MLOAD DUP1 PUSH1 0x20 DUP5 ADD MSTORE PUSH2 0x284C DUP2 PUSH1 0x40 DUP6 ADD PUSH1 0x20 DUP8 ADD PUSH2 0x2CFC JUMP JUMPDEST PUSH1 0x1F ADD PUSH1 0x1F NOT AND SWAP2 SWAP1 SWAP2 ADD PUSH1 0x40 ADD SWAP3 SWAP2 POP POP JUMP JUMPDEST PUSH1 0x20 DUP1 DUP3 MSTORE PUSH1 0x14 SWAP1 DUP3 ADD MSTORE PUSH20 0x14185D5CD8589B194E881B9BDD081C185D5CD959 PUSH1 0x62 SHL PUSH1 0x40 DUP3 ADD MSTORE PUSH1 0x60 ADD SWAP1 JUMP JUMPDEST PUSH1 0x20 DUP1 DUP3 MSTORE PUSH1 0x26 SWAP1 DUP3 ADD MSTORE PUSH32 0x4F776E61626C653A206E6577206F776E657220697320746865207A65726F2061 PUSH1 0x40 DUP3 ADD MSTORE PUSH6 0x646472657373 PUSH1 0xD0 SHL PUSH1 0x60 DUP3 ADD MSTORE PUSH1 0x80 ADD SWAP1 JUMP JUMPDEST PUSH1 0x20 DUP1 DUP3 MSTORE PUSH1 0x1B SWAP1 DUP3 ADD MSTORE PUSH32 0x536166654D6174683A206164646974696F6E206F766572666C6F770000000000 PUSH1 0x40 DUP3 ADD MSTORE PUSH1 0x60 ADD SWAP1 JUMP JUMPDEST PUSH1 0x20 DUP1 DUP3 MSTORE PUSH1 0x1E SWAP1 DUP3 ADD MSTORE PUSH32 0x536166654D6174683A207375627472616374696F6E206F766572666C6F770000 PUSH1 0x40 DUP3 ADD MSTORE PUSH1 0x60 ADD SWAP1 JUMP JUMPDEST PUSH1 0x20 DUP1 DUP3 MSTORE PUSH1 0x26 SWAP1 DUP3 ADD MSTORE PUSH32 0x416464726573733A20696E73756666696369656E742062616C616E636520666F PUSH1 0x40 DUP3 ADD MSTORE PUSH6 0x1C8818D85B1B PUSH1 0xD2 SHL PUSH1 0x60 DUP3 ADD MSTORE PUSH1 0x80 ADD SWAP1 JUMP JUMPDEST PUSH1 0x20 DUP1 DUP3 MSTORE PUSH1 0x1A SWAP1 DUP3 ADD MSTORE PUSH32 0x536166654D6174683A206469766973696F6E206279207A65726F000000000000 PUSH1 0x40 DUP3 ADD MSTORE PUSH1 0x60 ADD SWAP1 JUMP JUMPDEST PUSH1 0x20 DUP1 DUP3 MSTORE PUSH1 0x10 SWAP1 DUP3 ADD MSTORE PUSH16 0x14185D5CD8589B194E881C185D5CD959 PUSH1 0x82 SHL PUSH1 0x40 DUP3 ADD MSTORE PUSH1 0x60 ADD SWAP1 JUMP JUMPDEST PUSH1 0x20 DUP1 DUP3 MSTORE PUSH1 0x2E SWAP1 DUP3 ADD MSTORE PUSH32 0x496E697469616C697A61626C653A20636F6E747261637420697320616C726561 PUSH1 0x40 DUP3 ADD MSTORE PUSH14 0x191E481A5B9A5D1A585B1A5E9959 PUSH1 0x92 SHL PUSH1 0x60 DUP3 ADD MSTORE PUSH1 0x80 ADD SWAP1 JUMP JUMPDEST PUSH1 0x20 DUP1 DUP3 MSTORE PUSH1 0x21 SWAP1 DUP3 ADD MSTORE PUSH32 0x536166654D6174683A206D756C7469706C69636174696F6E206F766572666C6F PUSH1 0x40 DUP3 ADD MSTORE PUSH1 0x77 PUSH1 0xF8 SHL PUSH1 0x60 DUP3 ADD MSTORE PUSH1 0x80 ADD SWAP1 JUMP JUMPDEST PUSH1 0x20 DUP1 DUP3 MSTORE DUP2 DUP2 ADD MSTORE PUSH32 0x4F776E61626C653A2063616C6C6572206973206E6F7420746865206F776E6572 PUSH1 0x40 DUP3 ADD MSTORE PUSH1 0x60 ADD SWAP1 JUMP JUMPDEST PUSH1 0x20 DUP1 DUP3 MSTORE PUSH1 0x1D SWAP1 DUP3 ADD MSTORE PUSH32 0x416464726573733A2063616C6C20746F206E6F6E2D636F6E7472616374000000 PUSH1 0x40 DUP3 ADD MSTORE PUSH1 0x60 ADD SWAP1 JUMP JUMPDEST PUSH1 0x20 DUP1 DUP3 MSTORE PUSH1 0x16 SWAP1 DUP3 ADD MSTORE PUSH22 0x26BAB9BA10333937B6903B30BAB63A17B5B2B2B832B9 PUSH1 0x51 SHL PUSH1 0x40 DUP3 ADD MSTORE PUSH1 0x60 ADD SWAP1 JUMP JUMPDEST PUSH1 0x20 DUP1 DUP3 MSTORE PUSH1 0x2A SWAP1 DUP3 ADD MSTORE PUSH32 0x5361666545524332303A204552433230206F7065726174696F6E20646964206E PUSH1 0x40 DUP3 ADD MSTORE PUSH10 0x1BDD081CDD58D8D95959 PUSH1 0xB2 SHL PUSH1 0x60 DUP3 ADD MSTORE PUSH1 0x80 ADD SWAP1 JUMP JUMPDEST PUSH1 0x20 DUP1 DUP3 MSTORE PUSH1 0x1F SWAP1 DUP3 ADD MSTORE PUSH32 0x5265656E7472616E637947756172643A207265656E7472616E742063616C6C00 PUSH1 0x40 DUP3 ADD MSTORE PUSH1 0x60 ADD SWAP1 JUMP JUMPDEST PUSH1 0x20 DUP1 DUP3 MSTORE PUSH1 0x36 SWAP1 DUP3 ADD MSTORE PUSH32 0x5361666545524332303A20617070726F76652066726F6D206E6F6E2D7A65726F PUSH1 0x40 DUP3 ADD MSTORE PUSH22 0x20746F206E6F6E2D7A65726F20616C6C6F77616E6365 PUSH1 0x50 SHL PUSH1 0x60 DUP3 ADD MSTORE PUSH1 0x80 ADD SWAP1 JUMP JUMPDEST PUSH1 0x20 DUP1 DUP3 MSTORE PUSH1 0xF SWAP1 DUP3 ADD MSTORE PUSH15 0x135D5CDD08199C9BDB481D985D5B1D PUSH1 0x8A SHL PUSH1 0x40 DUP3 ADD MSTORE PUSH1 0x60 ADD SWAP1 JUMP JUMPDEST SWAP1 DUP2 MSTORE PUSH1 0x20 ADD SWAP1 JUMP JUMPDEST SWAP2 DUP3 MSTORE PUSH1 0x1 PUSH1 0x1 PUSH1 0xA0 SHL SUB AND PUSH1 0x20 DUP3 ADD MSTORE PUSH1 0x40 ADD SWAP1 JUMP JUMPDEST SWAP2 DUP3 MSTORE PUSH1 0x20 DUP3 ADD MSTORE PUSH1 0x40 ADD SWAP1 JUMP JUMPDEST PUSH1 0x0 PUSH1 0xA0 DUP3 ADD DUP8 DUP4 MSTORE PUSH1 0x20 DUP8 DUP2 DUP6 ADD MSTORE PUSH1 0xA0 PUSH1 0x40 DUP6 ADD MSTORE DUP2 DUP8 SLOAD DUP1 DUP5 MSTORE PUSH1 0xC0 DUP7 ADD SWAP2 POP DUP9 DUP6 MSTORE DUP3 DUP6 KECCAK256 SWAP4 POP DUP5 JUMPDEST DUP2 DUP2 LT ISZERO PUSH2 0x2C94 JUMPI DUP5 SLOAD PUSH1 0x1 PUSH1 0x1 PUSH1 0xA0 SHL SUB AND DUP4 MSTORE PUSH1 0x1 SWAP5 DUP6 ADD SWAP5 SWAP3 DUP5 ADD SWAP3 ADD PUSH2 0x2C6F JUMP JUMPDEST POP POP PUSH1 0x1 PUSH1 0x1 PUSH1 0xA0 SHL SUB SWAP7 SWAP1 SWAP7 AND PUSH1 0x60 DUP6 ADD MSTORE POP POP POP PUSH1 0x80 ADD MSTORE SWAP4 SWAP3 POP POP POP JUMP JUMPDEST PUSH1 0x40 MLOAD DUP2 DUP2 ADD PUSH8 0xFFFFFFFFFFFFFFFF DUP2 GT DUP3 DUP3 LT OR ISZERO PUSH2 0x2CD4 JUMPI PUSH1 0x0 DUP1 REVERT JUMPDEST PUSH1 0x40 MSTORE SWAP2 SWAP1 POP JUMP JUMPDEST PUSH1 0x0 PUSH8 0xFFFFFFFFFFFFFFFF DUP3 GT ISZERO PUSH2 0x2CF2 JUMPI DUP1 DUP2 REVERT JUMPDEST POP PUSH1 0x20 SWAP1 DUP2 MUL ADD SWAP1 JUMP JUMPDEST PUSH1 0x0 JUMPDEST DUP4 DUP2 LT ISZERO PUSH2 0x2D17 JUMPI DUP2 DUP2 ADD MLOAD DUP4 DUP3 ADD MSTORE PUSH1 0x20 ADD PUSH2 0x2CFF JUMP JUMPDEST DUP4 DUP2 GT ISZERO PUSH2 0x1AE7 JUMPI POP POP PUSH1 0x0 SWAP2 ADD MSTORE JUMP JUMPDEST PUSH1 0x1 PUSH1 0x1 PUSH1 0xA0 SHL SUB DUP2 AND DUP2 EQ PUSH2 0x19B3 JUMPI PUSH1 0x0 DUP1 REVERT JUMPDEST DUP1 ISZERO ISZERO DUP2 EQ PUSH2 0x19B3 JUMPI PUSH1 0x0 DUP1 REVERT INVALID LOG2 PUSH5 0x6970667358 0x22 SLT KECCAK256 PUSH14 0x1BB799001B40A11E72FA00B997F6 SELFBALANCE PUSH11 0xC0191039F13CFE83B92642 CHAINID 0xF9 DUP11 0xD3 PUSH5 0x736F6C6343 STOP MOD 0xC STOP CALLER "
		},
		"gasEstimates": {
			"creation": {
				"codeDepositCost": "2329800",
				"executionCost": "2501",
				"totalCost": "2332301"
			},
			"external": {
				"deposit(uint256)": "infinite",
				"fairLaunch()": "1159",
				"harvest(uint256)": "infinite",
				"initialize(uint256,address,address,address,address,address,address,address,address,bool)": "infinite",
				"keepers(address)": "1348",
				"lastHarvestBlock()": "1097",
				"owner()": "1115",
				"pause()": "infinite",
				"paused()": "1108",
				"poolId()": "1140",
				"rabbitToWantPath(uint256)": "2084",
				"rabbitToken()": "1137",
				"rabbitVault()": "1181",
				"rabbitVaultIbToken()": "1136",
				"rabbitVaultToken()": "1117",
				"rabbitVaultTotalToken()": "infinite",
				"renounceOwnership()": "24298",
				"setKeepers(address[],bool[])": "infinite",
				"setVault(address)": "22140",
				"totalBalance()": "infinite",
				"transferOwnership(address)": "24572",
				"uniRouterAddress()": "1137",
				"unpause()": "infinite",
				"vault()": "1180",
				"wantAmtToIbAmount(uint256)": "infinite",
				"wantIsWBNB()": "1108",
				"wantToken()": "1170",
				"wbnbAddress()": "1160",
				"withdraw(uint256)": "infinite"
			},
			"internal": {
				"_harvest(uint256)": "infinite",
				"_ibDeposited()": "infinite"
			}
		},
		"methodIdentifiers": {
			"deposit(uint256)": "b6b55f25",
			"fairLaunch()": "94e1cf96",
			"harvest(uint256)": "ddc63262",
			"initialize(uint256,address,address,address,address,address,address,address,address,bool)": "9b877a5c",
			"keepers(address)": "3bbd64bc",
			"lastHarvestBlock()": "14b74d9a",
			"owner()": "8da5cb5b",
			"pause()": "8456cb59",
			"paused()": "5c975abb",
			"poolId()": "3e0dc34e",
			"rabbitToWantPath(uint256)": "2c9c133b",
			"rabbitToken()": "90d47c9b",
			"rabbitVault()": "6daa50ec",
			"rabbitVaultIbToken()": "f2c6b686",
			"rabbitVaultToken()": "088e9ae9",
			"rabbitVaultTotalToken()": "242c27fb",
			"renounceOwnership()": "715018a6",
			"setKeepers(address[],bool[])": "6a4f4b05",
			"setVault(address)": "6817031b",
			"totalBalance()": "ad7a672f",
			"transferOwnership(address)": "f2fde38b",
			"uniRouterAddress()": "693a090b",
			"unpause()": "3f4ba83a",
			"vault()": "fbfa77cf",
			"wantAmtToIbAmount(uint256)": "da480695",
			"wantIsWBNB()": "7cd3431a",
			"wantToken()": "d23e0480",
			"wbnbAddress()": "63fe3e3a",
			"withdraw(uint256)": "2e1a7d4d"
		}
	},
	"abi": [
		{
			"anonymous": false,
			"inputs": [
				{
					"indexed": false,
					"internalType": "address[]",
					"name": "keepers",
					"type": "address[]"
				},
				{
					"indexed": false,
					"internalType": "bool[]",
					"name": "states",
					"type": "bool[]"
				}
			],
			"name": "KeepersSet",
			"type": "event"
		},
		{
			"anonymous": false,
			"inputs": [
				{
					"indexed": true,
					"internalType": "address",
					"name": "previousOwner",
					"type": "address"
				},
				{
					"indexed": true,
					"internalType": "address",
					"name": "newOwner",
					"type": "address"
				}
			],
			"name": "OwnershipTransferred",
			"type": "event"
		},
		{
			"anonymous": false,
			"inputs": [
				{
					"indexed": false,
					"internalType": "address",
					"name": "account",
					"type": "address"
				}
			],
			"name": "Paused",
			"type": "event"
		},
		{
			"anonymous": false,
			"inputs": [
				{
					"indexed": false,
					"internalType": "address",
					"name": "account",
					"type": "address"
				}
			],
			"name": "Unpaused",
			"type": "event"
		},
		{
			"inputs": [
				{
					"internalType": "uint256",
					"name": "_wantAmt",
					"type": "uint256"
				}
			],
			"name": "deposit",
			"outputs": [],
			"stateMutability": "nonpayable",
			"type": "function"
		},
		{
			"inputs": [],
			"name": "fairLaunch",
			"outputs": [
				{
					"internalType": "contract IFairLaunch",
					"name": "",
					"type": "address"
				}
			],
			"stateMutability": "view",
			"type": "function"
		},
		{
			"inputs": [
				{
					"internalType": "uint256",
					"name": "minPrice",
					"type": "uint256"
				}
			],
			"name": "harvest",
			"outputs": [],
			"stateMutability": "nonpayable",
			"type": "function"
		},
		{
			"inputs": [
				{
					"internalType": "uint256",
					"name": "_poolId",
					"type": "uint256"
				},
				{
					"internalType": "address",
					"name": "_fairLaunchAddress",
					"type": "address"
				},
				{
					"internalType": "address",
					"name": "_rabbitToken",
					"type": "address"
				},
				{
					"internalType": "address",
					"name": "_rabbitVault",
					"type": "address"
				},
				{
					"internalType": "address",
					"name": "_rabbitVaultToken",
					"type": "address"
				},
				{
					"internalType": "address",
					"name": "_wantAddress",
					"type": "address"
				},
				{
					"internalType": "address",
					"name": "_wbnbAddress",
					"type": "address"
				},
				{
					"internalType": "address",
					"name": "_uniRouterAddress",
					"type": "address"
				},
				{
					"internalType": "address",
					"name": "_vault",
					"type": "address"
				},
				{
					"internalType": "bool",
					"name": "_wantIsWBNB",
					"type": "bool"
				}
			],
			"name": "initialize",
			"outputs": [],
			"stateMutability": "nonpayable",
			"type": "function"
		},
		{
			"inputs": [
				{
					"internalType": "address",
					"name": "",
					"type": "address"
				}
			],
			"name": "keepers",
			"outputs": [
				{
					"internalType": "bool",
					"name": "",
					"type": "bool"
				}
			],
			"stateMutability": "view",
			"type": "function"
		},
		{
			"inputs": [],
			"name": "lastHarvestBlock",
			"outputs": [
				{
					"internalType": "uint256",
					"name": "",
					"type": "uint256"
				}
			],
			"stateMutability": "view",
			"type": "function"
		},
		{
			"inputs": [],
			"name": "owner",
			"outputs": [
				{
					"internalType": "address",
					"name": "",
					"type": "address"
				}
			],
			"stateMutability": "view",
			"type": "function"
		},
		{
			"inputs": [],
			"name": "pause",
			"outputs": [],
			"stateMutability": "nonpayable",
			"type": "function"
		},
		{
			"inputs": [],
			"name": "paused",
			"outputs": [
				{
					"internalType": "bool",
					"name": "",
					"type": "bool"
				}
			],
			"stateMutability": "view",
			"type": "function"
		},
		{
			"inputs": [],
			"name": "poolId",
			"outputs": [
				{
					"internalType": "uint256",
					"name": "",
					"type": "uint256"
				}
			],
			"stateMutability": "view",
			"type": "function"
		},
		{
			"inputs": [
				{
					"internalType": "uint256",
					"name": "",
					"type": "uint256"
				}
			],
			"name": "rabbitToWantPath",
			"outputs": [
				{
					"internalType": "address",
					"name": "",
					"type": "address"
				}
			],
			"stateMutability": "view",
			"type": "function"
		},
		{
			"inputs": [],
			"name": "rabbitToken",
			"outputs": [
				{
					"internalType": "contract IERC20",
					"name": "",
					"type": "address"
				}
			],
			"stateMutability": "view",
			"type": "function"
		},
		{
			"inputs": [],
			"name": "rabbitVault",
			"outputs": [
				{
					"internalType": "contract IRabbitVault",
					"name": "",
					"type": "address"
				}
			],
			"stateMutability": "view",
			"type": "function"
		},
		{
			"inputs": [],
			"name": "rabbitVaultIbToken",
			"outputs": [
				{
					"internalType": "contract IERC20",
					"name": "",
					"type": "address"
				}
			],
			"stateMutability": "view",
			"type": "function"
		},
		{
			"inputs": [],
			"name": "rabbitVaultToken",
			"outputs": [
				{
					"internalType": "contract IERC20",
					"name": "",
					"type": "address"
				}
			],
			"stateMutability": "view",
			"type": "function"
		},
		{
			"inputs": [],
			"name": "rabbitVaultTotalToken",
			"outputs": [
				{
					"internalType": "uint256",
					"name": "",
					"type": "uint256"
				}
			],
			"stateMutability": "view",
			"type": "function"
		},
		{
			"inputs": [],
			"name": "renounceOwnership",
			"outputs": [],
			"stateMutability": "nonpayable",
			"type": "function"
		},
		{
			"inputs": [
				{
					"internalType": "address[]",
					"name": "_keepers",
					"type": "address[]"
				},
				{
					"internalType": "bool[]",
					"name": "_states",
					"type": "bool[]"
				}
			],
			"name": "setKeepers",
			"outputs": [],
			"stateMutability": "nonpayable",
			"type": "function"
		},
		{
			"inputs": [
				{
					"internalType": "address",
					"name": "_vault",
					"type": "address"
				}
			],
			"name": "setVault",
			"outputs": [],
			"stateMutability": "nonpayable",
			"type": "function"
		},
		{
			"inputs": [],
			"name": "totalBalance",
			"outputs": [
				{
					"internalType": "uint256",
					"name": "",
					"type": "uint256"
				}
			],
			"stateMutability": "view",
			"type": "function"
		},
		{
			"inputs": [
				{
					"internalType": "address",
					"name": "newOwner",
					"type": "address"
				}
			],
			"name": "transferOwnership",
			"outputs": [],
			"stateMutability": "nonpayable",
			"type": "function"
		},
		{
			"inputs": [],
			"name": "uniRouterAddress",
			"outputs": [
				{
					"internalType": "address",
					"name": "",
					"type": "address"
				}
			],
			"stateMutability": "view",
			"type": "function"
		},
		{
			"inputs": [],
			"name": "unpause",
			"outputs": [],
			"stateMutability": "nonpayable",
			"type": "function"
		},
		{
			"inputs": [],
			"name": "vault",
			"outputs": [
				{
					"internalType": "address",
					"name": "",
					"type": "address"
				}
			],
			"stateMutability": "view",
			"type": "function"
		},
		{
			"inputs": [
				{
					"internalType": "uint256",
					"name": "_wantAmt",
					"type": "uint256"
				}
			],
			"name": "wantAmtToIbAmount",
			"outputs": [
				{
					"internalType": "uint256",
					"name": "",
					"type": "uint256"
				}
			],
			"stateMutability": "view",
			"type": "function"
		},
		{
			"inputs": [],
			"name": "wantIsWBNB",
			"outputs": [
				{
					"internalType": "bool",
					"name": "",
					"type": "bool"
				}
			],
			"stateMutability": "view",
			"type": "function"
		},
		{
			"inputs": [],
			"name": "wantToken",
			"outputs": [
				{
					"internalType": "contract IERC20",
					"name": "",
					"type": "address"
				}
			],
			"stateMutability": "view",
			"type": "function"
		},
		{
			"inputs": [],
			"name": "wbnbAddress",
			"outputs": [
				{
					"internalType": "address",
					"name": "",
					"type": "address"
				}
			],
			"stateMutability": "view",
			"type": "function"
		},
		{
			"inputs": [
				{
					"internalType": "uint256",
					"name": "_wantAmt",
					"type": "uint256"
				}
			],
			"name": "withdraw",
			"outputs": [],
			"stateMutability": "nonpayable",
			"type": "function"
		},
		{
			"stateMutability": "payable",
			"type": "receive"
		}
	]
}