{
	"data": {
		"bytecode": {
			"linkReferences": {},
			"object": "608060405234801561001057600080fd5b50610353806100206000396000f3fe608060405234801561001057600080fd5b506004361061010b5760003560e01c80636ecf4ffa116100a2578063c914b43711610071578063c914b437146101dc578063cd8ab2e8146101e4578063d2a3611614610201578063e71984741461014e578063e7a03679146102095761010b565b80636ecf4ffa14610192578063706cac35146101af5780638aa14f04146101cc578063b5ae6e56146101d45761010b565b8063412dfe49116100de578063412dfe49146101725780634651360d1461017a57806363fe3e3a14610182578063693a090b1461018a5761010b565b80632792bd571461011057806329c1bd4714610134578063358ae0361461014e57806340a13c6114610156575b600080fd5b610118610211565b604080516001600160a01b039092168252519081900360200190f35b61013c610220565b60408051918252519081900360200190f35b610118610226565b61015e61023e565b604080519115158252519081900360200190f35b610118610247565b61011861025f565b61011861026e565b610118610286565b610118600480360360208110156101a857600080fd5b5035610295565b610118600480360360208110156101c557600080fd5b50356102bc565b6101186102c9565b6101186102d8565b61013c6102e7565b610118600480360360208110156101fa57600080fd5b50356102ed565b6101186102fa565b610118610309565b6001546001600160a01b031681565b600a5481565b73cf6bb5389c92bdda8a3747ddb454cb7a64626c6381565b60005460ff1681565b73fd36e2c2a6789db23113685031d7f1632915838481565b6004546001600160a01b031681565b73bb4cdb9cbd36b01bd1cbaebf2de08d9173bc095c81565b6003546001600160a01b031681565b600681815481106102a257fe5b6000918252602090912001546001600160a01b0316905081565b600281815481106102a257fe5b6009546001600160a01b031681565b6008546001600160a01b031681565b60075481565b600581815481106102a257fe5b600b546001600160a01b031681565b60005461010090046001600160a01b03168156fea26469706673582212200f428d5398f5148b980a3e67396463716c407839fd830a136911120fef318c8e64736f6c634300060c0033",
			"opcodes": "PUSH1 0x80 PUSH1 0x40 MSTORE CALLVALUE DUP1 ISZERO PUSH2 0x10 JUMPI PUSH1 0x0 DUP1 REVERT JUMPDEST POP PUSH2 0x353 DUP1 PUSH2 0x20 PUSH1 0x0 CODECOPY PUSH1 0x0 RETURN INVALID PUSH1 0x80 PUSH1 0x40 MSTORE CALLVALUE DUP1 ISZERO PUSH2 0x10 JUMPI PUSH1 0x0 DUP1 REVERT JUMPDEST POP PUSH1 0x4 CALLDATASIZE LT PUSH2 0x10B JUMPI PUSH1 0x0 CALLDATALOAD PUSH1 0xE0 SHR DUP1 PUSH4 0x6ECF4FFA GT PUSH2 0xA2 JUMPI DUP1 PUSH4 0xC914B437 GT PUSH2 0x71 JUMPI DUP1 PUSH4 0xC914B437 EQ PUSH2 0x1DC JUMPI DUP1 PUSH4 0xCD8AB2E8 EQ PUSH2 0x1E4 JUMPI DUP1 PUSH4 0xD2A36116 EQ PUSH2 0x201 JUMPI DUP1 PUSH4 0xE7198474 EQ PUSH2 0x14E JUMPI DUP1 PUSH4 0xE7A03679 EQ PUSH2 0x209 JUMPI PUSH2 0x10B JUMP JUMPDEST DUP1 PUSH4 0x6ECF4FFA EQ PUSH2 0x192 JUMPI DUP1 PUSH4 0x706CAC35 EQ PUSH2 0x1AF JUMPI DUP1 PUSH4 0x8AA14F04 EQ PUSH2 0x1CC JUMPI DUP1 PUSH4 0xB5AE6E56 EQ PUSH2 0x1D4 JUMPI PUSH2 0x10B JUMP JUMPDEST DUP1 PUSH4 0x412DFE49 GT PUSH2 0xDE JUMPI DUP1 PUSH4 0x412DFE49 EQ PUSH2 0x172 JUMPI DUP1 PUSH4 0x4651360D EQ PUSH2 0x17A JUMPI DUP1 PUSH4 0x63FE3E3A EQ PUSH2 0x182 JUMPI DUP1 PUSH4 0x693A090B EQ PUSH2 0x18A JUMPI PUSH2 0x10B JUMP JUMPDEST DUP1 PUSH4 0x2792BD57 EQ PUSH2 0x110 JUMPI DUP1 PUSH4 0x29C1BD47 EQ PUSH2 0x134 JUMPI DUP1 PUSH4 0x358AE036 EQ PUSH2 0x14E JUMPI DUP1 PUSH4 0x40A13C61 EQ PUSH2 0x156 JUMPI JUMPDEST PUSH1 0x0 DUP1 REVERT JUMPDEST PUSH2 0x118 PUSH2 0x211 JUMP JUMPDEST PUSH1 0x40 DUP1 MLOAD PUSH1 0x1 PUSH1 0x1 PUSH1 0xA0 SHL SUB SWAP1 SWAP3 AND DUP3 MSTORE MLOAD SWAP1 DUP2 SWAP1 SUB PUSH1 0x20 ADD SWAP1 RETURN JUMPDEST PUSH2 0x13C PUSH2 0x220 JUMP JUMPDEST PUSH1 0x40 DUP1 MLOAD SWAP2 DUP3 MSTORE MLOAD SWAP1 DUP2 SWAP1 SUB PUSH1 0x20 ADD SWAP1 RETURN JUMPDEST PUSH2 0x118 PUSH2 0x226 JUMP JUMPDEST PUSH2 0x15E PUSH2 0x23E JUMP JUMPDEST PUSH1 0x40 DUP1 MLOAD SWAP2 ISZERO ISZERO DUP3 MSTORE MLOAD SWAP1 DUP2 SWAP1 SUB PUSH1 0x20 ADD SWAP1 RETURN JUMPDEST PUSH2 0x118 PUSH2 0x247 JUMP JUMPDEST PUSH2 0x118 PUSH2 0x25F JUMP JUMPDEST PUSH2 0x118 PUSH2 0x26E JUMP JUMPDEST PUSH2 0x118 PUSH2 0x286 JUMP JUMPDEST PUSH2 0x118 PUSH1 0x4 DUP1 CALLDATASIZE SUB PUSH1 0x20 DUP2 LT ISZERO PUSH2 0x1A8 JUMPI PUSH1 0x0 DUP1 REVERT JUMPDEST POP CALLDATALOAD PUSH2 0x295 JUMP JUMPDEST PUSH2 0x118 PUSH1 0x4 DUP1 CALLDATASIZE SUB PUSH1 0x20 DUP2 LT ISZERO PUSH2 0x1C5 JUMPI PUSH1 0x0 DUP1 REVERT JUMPDEST POP CALLDATALOAD PUSH2 0x2BC JUMP JUMPDEST PUSH2 0x118 PUSH2 0x2C9 JUMP JUMPDEST PUSH2 0x118 PUSH2 0x2D8 JUMP JUMPDEST PUSH2 0x13C PUSH2 0x2E7 JUMP JUMPDEST PUSH2 0x118 PUSH1 0x4 DUP1 CALLDATASIZE SUB PUSH1 0x20 DUP2 LT ISZERO PUSH2 0x1FA JUMPI PUSH1 0x0 DUP1 REVERT JUMPDEST POP CALLDATALOAD PUSH2 0x2ED JUMP JUMPDEST PUSH2 0x118 PUSH2 0x2FA JUMP JUMPDEST PUSH2 0x118 PUSH2 0x309 JUMP JUMPDEST PUSH1 0x1 SLOAD PUSH1 0x1 PUSH1 0x1 PUSH1 0xA0 SHL SUB AND DUP2 JUMP JUMPDEST PUSH1 0xA SLOAD DUP2 JUMP JUMPDEST PUSH20 0xCF6BB5389C92BDDA8A3747DDB454CB7A64626C63 DUP2 JUMP JUMPDEST PUSH1 0x0 SLOAD PUSH1 0xFF AND DUP2 JUMP JUMPDEST PUSH20 0xFD36E2C2A6789DB23113685031D7F16329158384 DUP2 JUMP JUMPDEST PUSH1 0x4 SLOAD PUSH1 0x1 PUSH1 0x1 PUSH1 0xA0 SHL SUB AND DUP2 JUMP JUMPDEST PUSH20 0xBB4CDB9CBD36B01BD1CBAEBF2DE08D9173BC095C DUP2 JUMP JUMPDEST PUSH1 0x3 SLOAD PUSH1 0x1 PUSH1 0x1 PUSH1 0xA0 SHL SUB AND DUP2 JUMP JUMPDEST PUSH1 0x6 DUP2 DUP2 SLOAD DUP2 LT PUSH2 0x2A2 JUMPI INVALID JUMPDEST PUSH1 0x0 SWAP2 DUP3 MSTORE PUSH1 0x20 SWAP1 SWAP2 KECCAK256 ADD SLOAD PUSH1 0x1 PUSH1 0x1 PUSH1 0xA0 SHL SUB AND SWAP1 POP DUP2 JUMP JUMPDEST PUSH1 0x2 DUP2 DUP2 SLOAD DUP2 LT PUSH2 0x2A2 JUMPI INVALID JUMPDEST PUSH1 0x9 SLOAD PUSH1 0x1 PUSH1 0x1 PUSH1 0xA0 SHL SUB AND DUP2 JUMP JUMPDEST PUSH1 0x8 SLOAD PUSH1 0x1 PUSH1 0x1 PUSH1 0xA0 SHL SUB AND DUP2 JUMP JUMPDEST PUSH1 0x7 SLOAD DUP2 JUMP JUMPDEST PUSH1 0x5 DUP2 DUP2 SLOAD DUP2 LT PUSH2 0x2A2 JUMPI INVALID JUMPDEST PUSH1 0xB SLOAD PUSH1 0x1 PUSH1 0x1 PUSH1 0xA0 SHL SUB AND DUP2 JUMP JUMPDEST PUSH1 0x0 SLOAD PUSH2 0x100 SWAP1 DIV PUSH1 0x1 PUSH1 0x1 PUSH1 0xA0 SHL SUB AND DUP2 JUMP INVALID LOG2 PUSH5 0x6970667358 0x22 SLT KECCAK256 0xF TIMESTAMP DUP14 MSTORE8 SWAP9 CREATE2 EQ DUP12 SWAP9 EXP RETURNDATACOPY PUSH8 0x396463716C407839 REVERT DUP4 EXP SGT PUSH10 0x11120FEF318C8E64736F PUSH13 0x634300060C0033000000000000 "
		},
		"gasEstimates": {
			"creation": {
				"codeDepositCost": "170200",
				"executionCost": "214",
				"totalCost": "170414"
			},
			"external": {
				"PIAddress()": "1082",
				"bnbHelper()": "1126",
				"borrowRate()": "1020",
				"buyBackPoolAddress()": "1103",
				"buyBackPoolRate()": "1044",
				"earnedAddress()": "307",
				"isWBNB()": "1100",
				"leverageAdmin()": "1104",
				"uniRouterAddress()": "1126",
				"vTokenAddress()": "1061",
				"venusDistributionAddress()": "242",
				"venusMarkets(uint256)": "2015",
				"venusToPIPath(uint256)": "1993",
				"venusToWantPath(uint256)": "2014",
				"wantAddress()": "1158",
				"wbnbAddress()": "286",
				"xvsAddress()": "287"
			}
		},
		"methodIdentifiers": {
			"PIAddress()": "4651360d",
			"bnbHelper()": "b5ae6e56",
			"borrowRate()": "c914b437",
			"buyBackPoolAddress()": "d2a36116",
			"buyBackPoolRate()": "29c1bd47",
			"earnedAddress()": "e7198474",
			"isWBNB()": "40a13c61",
			"leverageAdmin()": "8aa14f04",
			"uniRouterAddress()": "693a090b",
			"vTokenAddress()": "2792bd57",
			"venusDistributionAddress()": "412dfe49",
			"venusMarkets(uint256)": "706cac35",
			"venusToPIPath(uint256)": "6ecf4ffa",
			"venusToWantPath(uint256)": "cd8ab2e8",
			"wantAddress()": "e7a03679",
			"wbnbAddress()": "63fe3e3a",
			"xvsAddress()": "358ae036"
		}
	},
	"abi": [
		{
			"inputs": [],
			"name": "PIAddress",
			"outputs": [
				{
					"internalType": "address",
					"name": "",
					"type": "address"
				}
			],
			"stateMutability": "view",
			"type": "function"
		},
		{
			"inputs": [],
			"name": "bnbHelper",
			"outputs": [
				{
					"internalType": "address",
					"name": "",
					"type": "address"
				}
			],
			"stateMutability": "view",
			"type": "function"
		},
		{
			"inputs": [],
			"name": "borrowRate",
			"outputs": [
				{
					"internalType": "uint256",
					"name": "",
					"type": "uint256"
				}
			],
			"stateMutability": "view",
			"type": "function"
		},
		{
			"inputs": [],
			"name": "buyBackPoolAddress",
			"outputs": [
				{
					"internalType": "address",
					"name": "",
					"type": "address"
				}
			],
			"stateMutability": "view",
			"type": "function"
		},
		{
			"inputs": [],
			"name": "buyBackPoolRate",
			"outputs": [
				{
					"internalType": "uint256",
					"name": "",
					"type": "uint256"
				}
			],
			"stateMutability": "view",
			"type": "function"
		},
		{
			"inputs": [],
			"name": "earnedAddress",
			"outputs": [
				{
					"internalType": "address",
					"name": "",
					"type": "address"
				}
			],
			"stateMutability": "view",
			"type": "function"
		},
		{
			"inputs": [],
			"name": "isWBNB",
			"outputs": [
				{
					"internalType": "bool",
					"name": "",
					"type": "bool"
				}
			],
			"stateMutability": "view",
			"type": "function"
		},
		{
			"inputs": [],
			"name": "leverageAdmin",
			"outputs": [
				{
					"internalType": "address",
					"name": "",
					"type": "address"
				}
			],
			"stateMutability": "view",
			"type": "function"
		},
		{
			"inputs": [],
			"name": "uniRouterAddress",
			"outputs": [
				{
					"internalType": "address",
					"name": "",
					"type": "address"
				}
			],
			"stateMutability": "view",
			"type": "function"
		},
		{
			"inputs": [],
			"name": "vTokenAddress",
			"outputs": [
				{
					"internalType": "address",
					"name": "",
					"type": "address"
				}
			],
			"stateMutability": "view",
			"type": "function"
		},
		{
			"inputs": [],
			"name": "venusDistributionAddress",
			"outputs": [
				{
					"internalType": "address",
					"name": "",
					"type": "address"
				}
			],
			"stateMutability": "view",
			"type": "function"
		},
		{
			"inputs": [
				{
					"internalType": "uint256",
					"name": "",
					"type": "uint256"
				}
			],
			"name": "venusMarkets",
			"outputs": [
				{
					"internalType": "address",
					"name": "",
					"type": "address"
				}
			],
			"stateMutability": "view",
			"type": "function"
		},
		{
			"inputs": [
				{
					"internalType": "uint256",
					"name": "",
					"type": "uint256"
				}
			],
			"name": "venusToPIPath",
			"outputs": [
				{
					"internalType": "address",
					"name": "",
					"type": "address"
				}
			],
			"stateMutability": "view",
			"type": "function"
		},
		{
			"inputs": [
				{
					"internalType": "uint256",
					"name": "",
					"type": "uint256"
				}
			],
			"name": "venusToWantPath",
			"outputs": [
				{
					"internalType": "address",
					"name": "",
					"type": "address"
				}
			],
			"stateMutability": "view",
			"type": "function"
		},
		{
			"inputs": [],
			"name": "wantAddress",
			"outputs": [
				{
					"internalType": "address",
					"name": "",
					"type": "address"
				}
			],
			"stateMutability": "view",
			"type": "function"
		},
		{
			"inputs": [],
			"name": "wbnbAddress",
			"outputs": [
				{
					"internalType": "address",
					"name": "",
					"type": "address"
				}
			],
			"stateMutability": "view",
			"type": "function"
		},
		{
			"inputs": [],
			"name": "xvsAddress",
			"outputs": [
				{
					"internalType": "address",
					"name": "",
					"type": "address"
				}
			],
			"stateMutability": "view",
			"type": "function"
		}
	]
}